:0300000002026B8E
:0C026B00787FE4F6D8FD7581070202B22E
:0E05BC0000007F2B7E067DCBDDFEDEFCDFFA2D
:0105CA00220E
:1002F7001205A57BF47A017D647C007F0112044717
:100307007BF47A017DC87C007F021204471205BC8A
:100317007BF47A017DF47C017F011204477BF47A38
:10032700017D587C027F021204471205BC7BF47AD8
:10033700017D847C037F011204477BF47A017DE809
:100347007C037F021204471205BC7BF47A017DF41B
:100357007C017F011204477BF47A017D587C027F80
:09036700021204471205BC808A51
:1000030041001C0041001D004100000041000100AF
:0800130041000203410003005B
:1005A50053877F759850438E04759CFD438E014398
:0705B5008E10D2ACD2AF2280
:0F05CB0090001CE070FA90001C7401F08F9922D0
:1004A100900040EBF0A3EAF0A3E9F0D2ACAF051D58
:1004B100EF602390001CE070FA90001C7401F09032
:1004C1000040E0FBA3E475F001120162A9F0FA1209
:0704D100011CF59980D72200
:030023000201785F
:10017800C0E0C0F0C083C082C0D075D000C000C04D
:0D01880001C002C003C004C005C006C007CE
:10019500209803020246C298AF99900000E07026AD
:1001A500EFB45515A3E004F0E0B4021AE4F09000B2
:1001B5000004F0900003F0800D900000E4F0900042
:1001C50003F0900001F0900000E06075900003E0FE
:1001D500FE2404F582E43400F583EFF0EEB4032445
:1001E5002404F582E43400F583E0900002F0C39422
:1001F500034006E0D39408400B9000027403F0908E
:100205000000E4F0900003E004F0900002E0240315
:10021500FFE433FEA3E0FDB50727E4B50623900010
:100225001DE0701804F0ED2402FFE433FE781E7C17
:10023500007D017B017A0079041200F6900000E44C
:0B024500F0309907C29990001CE4F013
:10025000D007D006D005D004D003D002D001D00002
:0B026000D0D0D082D083D0F0D0E032AC
:0E05DA0090001DE06005E4F07F01227F00220A
:0B037000900040EBF0A3EAF0A3E9F0DE
:10037B00E4900044F0A3F09000437402F09000402E
:10038B00E0FBA3E0FAA3E0F990000312013524028D
:10039B00FFE433FE900043E0C39FEE6480F874806B
:1003AB0098501FE0F582758300120135FF900045D0
:1003BB00E02FF0900044E03400F0900043E004F0B4
:1003CB0080BB900044E0FEA3E0F4FFEEF490004409
:0803DB00F0A3EFF0900043F0E5
:0103E30022F7
:10050C009000477455F0900046F0900048EFF0A32F
:10051C007404F0A3740DF0A3EDF07B017A0079461E
:10052C0012037090004CEFF07B017A0079467D0746
:03053C000204A115
:02044700A90703
:10044900C3EC648094805003E4FCFDD3ED94E8ECA4
:100459006480948340047C037DE89000377455F0F0
:10046900900036F0900038E9F0A37407F0A3740106
:10047900F0A3EDF0ECFFA3EFF0A3EBF0EAA3F07B20
:10048900017A00793612037090003FEFF07B017A10
:080499000079367D0A0204A17E
:10053F0090004E7455F090004DF090004FEFF0A3E7
:10054F007404F0A3741FF0E4A3F07B017A00794DDB
:10055F00120370900053EFF07B017A00794D7D0705
:03056F000204A1E2
:100572009000557455F0900054F0900056EFF0A39F
:100582007404F0A3741FF0A37401F0FB7A00795491
:1005920012037090005AEFF07B017A0079547D07C4
:0305A2000204A1AF
:1004D80090005C7455F090005BF090005DEFF0A325
:1004E8007403F0A3741CF07B017A00795B1203702B
:1004F800900060EFF07B017A00795B7D061204A121
:030508001203E4F7
:01050B0022CD
:1003E4009000617427F0A37410F01205DAEF701B0B
:1003F400900062E024FFF0900061E034FFF0C3E07D
:100404006480948050E47EFF7FFF227B017A007930
:100414001E120370900021E02420F582E43400F5DC
:1004240083E06F60057EFF7FFE22900022E024E4DB
:10043400700D900024E0FE900023E0FDEDFF22E427
:02044400FEFFB9
:010446002293
:100277000202F7E493A3F8E493A34003F68001F2A4
:1002870008DFF48029E493A3F85407240CC8C33388
:10029700C4540F4420C8834004F456800146F6DF57
:1002A700E4800B0102040810204080900003E47EE4
:1002B700019360BCA3FF543F30E509541FFEE4934C
:1002C700A360010ECF54C025E060A840B8E493A313
:1002D700FAE493A3F8E493A3C8C582C8CAC583CA3E
:1002E700F0A3C8C582C8CAC583CADFE9DEE780BEF6
:01001B0000E4
:10002600E709F608DFFA8046E709F208DFFA803EBC
:1000360088828C83E709F0A3DFFA8032E309F608A9
:10004600DFFA8078E309F208DFFA807088828C8311
:10005600E309F0A3DFFA806489828A83E0A3F608C5
:10006600DFFA805889828A83E0A3F208DFFA804C9F
:1000760080D280FA80C680D4806980F28033801076
:1000860080A680EA809A80A880DA80E280CA8033DF
:1000960089828A83ECFAE493A3C8C582C8CCC58357
:1000A600CCF0A3C8C582C8CCC583CCDFE9DEE78027
:1000B6000D89828A83E493A3F608DFF9ECFAA9F0A6
:1000C600EDFB2289828A83ECFAE0A3C8C582C8CCFC
:1000D600C583CCF0A3C8C582C8CCC583CCDFEADE15
:1000E600E880DB89828A83E493A3F208DFF980CC77
:1000F60088F0EF60010E4E60C388F0ED2402B40470
:100106000050B9F582EB2402B4040050AF23234516
:06011600822390007673C5
:10011C00BB010689828A83E0225002E722BBFE02E1
:09012C00E32289828A83E4932214
:10013500BB010CE58229F582E5833AF583E022507F
:1001450006E92582F8E622BBFE06E92582F8E222C9
:0D015500E58229F582E5833AF583E49322E3
:10016200A3F8E0C5F025F0F0E58215827002158350
:06017200E0C838F0E822AD
:00000001FF
