:03000000020411E6
:0C041100787FE4F6D8FD758107020458DE
:1006E900006400C8012C0190006400C8012C01902D
:0E06F90000007F2B7E067DCBDDFEDEFCDFFAEF
:0107070022CF
:0E07080000007F167E037DE3DDFEDEFCDFFADF
:0107160022C0
:080734007F6C7E91DEFEDFFC0C
:01073C00229A
:10002600E4900000F0A3F0A3F078037C007D017B50
:10003600FF7A0679E9FE7F0812029C780B7C007D28
:10004600017BFF7A0679F17E007F0812029CD2B20C
:10005600D2B31206D27B647A007DF47C017F011252
:1000660005747B647A007DF47C017F02120574902E
:100076000002E0600302011B900000E06061A3E063
:10008600FF3395E0FEEF25E0FFEE33FE74032FF518
:100096008274003EF583E0FCA3E0FD7BF47A017FE9
:1000A60001120574900001E0FF04F0EF3395E0FEC5
:1000B600EF25E0FFEE33FE740B2FF58274003EF55C
:1000C60083E0FCA3E0FD7BF47A017F0212057490C5
:1000D6000001E0B40406E4F0900000F01206F920F6
:1000E600B31212073420B30C9000007401F0E4A39D
:1000F600F012070820B21E12073420B2187F011230
:10010600066C7F0212066C9000027401F0E4900007
:1001160001F0120708900002E06401600302007516
:1001260020B36512073420B35F7F01120605AC06C3
:10013600AD07900001E0FF3395E0FEEF25E0FFEE0E
:1001460033FE74032FF58274003EF583ECF0A3EDC5
:10015600F07F02120605AC06AD07900001E0FF0431
:10016600F0EF3395E0FEEF25E0FFEE33FE740B2F44
:10017600F58274003EF583ECF0A3EDF0900001E00B
:10018600B40402E4F012070830B203020075120745
:100196003430B2030200757F01120605AC06AD07C6
:1001A6007BC87A007F011205747F02120605AC0631
:1001B600AD077BC87A007F02120574E4900002F056
:0601C6001207080200759B
:1000030041003F0041004000410023004100240023
:08001300410025024100260016
:1006D20053877F759850438E04759CFD438E01436A
:0706E2008E10D2ACD2AF2252
:0F07170090003FE070FA90003F7401F08F99223C
:1005CE0090001DEBF0A3EAF0A3E9F0D2ACAF051D4D
:1005DE00EF602390003FE070FA90003F7401F090BE
:1005EE00001DE0FBA3E475F001120308A9F0FA1256
:0705FE0002C2F59980D7222B
:0300230002031EB7
:10031E00C0E0C0F0C083C082C0D075D000C000C0A5
:0D032E0001C002C003C004C005C006C00726
:10033B002098030203ECC298AF99900023E070263B
:10034B00EFB45515A3E004F0E0B4021AE4F090000A
:10035B002304F0900026F0800D900023E4F0900031
:10036B0026F0900024F0900023E06075900026E0CA
:10037B00FE2427F582E43400F583EFF0EEB403247A
:10038B002427F582E43400F583E0900025F0C39434
:10039B00034006E0D39408400B9000257403F090C3
:1003AB000023E4F0900026E004F0900025E0240305
:1003BB00FFE433FEA3E0FDB50727E4B50623900069
:1003CB0040E0701804F0ED2402FFE433FE78417C2A
:1003DB00007D017B017A00792712029C900023E4B7
:0B03EB00F0309907C29990003FE4F049
:1003F600D007D006D005D004D003D002D001D0005B
:0B040600D0D0D082D083D0F0D0E03204
:0E072600900040E06005E4F07F01227F002299
:0B049D0090001DEBF0A3EAF0A3E9F0D3
:1004A800E4900021F0A3F09000207402F090001D69
:1004B800E0FBA3E0FAA3E0F99000031202DB2402B8
:1004C800FFE433FE900020E0C39FEE6480F8748060
:1004D80098501FE0F5827583001202DBFF9000221E
:1004E800E02FF0900021E03400F0900020E004F0CC
:1004F80080BB900021E0FEA3E0F4FFEEF490002121
:08050800F0A3EFF0900020F0D9
:0105100022C8
:1006390090005A7455F0900059F090005BEFF0A3C8
:100649007404F0A3740DF0A3EDF07B017A007959DD
:1006590012049D90005FEFF07B017A0079597D07C4
:030669000205CEB9
:02057400A907D5
:10057600C3EC648094805003E4FCFDD3ED94E8EC76
:100586006480948340047C037DE89000147455F0E5
:10059600900013F0900015E9F0A37407F0A374011E
:1005A600F0A3EDF0ECFFA3EFF0A3EBF0EAA3F07BF2
:1005B600017A00791312049D90001CEFF07B017AFA
:0805C6000079137D0A0205CE45
:10066C009000147455F0900013F0900015EFF0A367
:10067C007404F0A3741FF0E4A3F07B017A007913E7
:10068C0012049D900019EFF07B017A0079137D071D
:03069C000205CE86
:10069F009000617455F0900060F0900062EFF0A34D
:1006AF007404F0A3741FF0A37401F0FB7A00796057
:1006BF0012049D900066EFF07B017A0079607D0750
:0306CF000205CE53
:100605009000147455F0900013F0900015EFF0A3CE
:100615007403F0A3741CF07B017A00791312049D16
:10062500900018EFF07B017A0079137D061205CE54
:030635001205119A
:01063800229F
:100511009000197427F0A37410F0120726EF701BD6
:1005210090001AE024FFF0900019E034FFF0C3E0DE
:100531006480948050E47EFF7FFF227B017A007902
:100541004112049D900044E02443F582E43400F517
:1005510083E06F60057EFF7FFE22900045E024E48A
:10056100700D900047E0FE900046E0FDEDFF22E4B3
:02057100FEFF8B
:010573002265
:10041D00020026E493A3F8E493A34003F68001F2CF
:10042D0008DFF48029E493A3F85407240CC8C333E0
:10043D00C4540F4420C8834004F456800146F6DFAF
:10044D00E4800B0102040810204080900003E47E3C
:10045D00019360BCA3FF543F30E509541FFEE493A4
:10046D00A360010ECF54C025E060A840B8E493A36B
:10047D00FAE493A3F8E493A3C8C582C8CAC583CA96
:10048D00F0A3C8C582C8CAC583CADFE9DEE780BE4E
:01001B0000E4
:1001CC00E709F608DFFA8046E709F208DFFA803E15
:1001DC0088828C83E709F0A3DFFA8032E309F60802
:1001EC00DFFA8078E309F208DFFA807088828C836A
:1001FC00E309F0A3DFFA806489828A83E0A3F6081E
:10020C00DFFA805889828A83E0A3F208DFFA804CF7
:10021C0080D280FA80C680D4806980F280338010CE
:10022C0080A680EA809A80A880DA80E280CA803337
:10023C0089828A83ECFAE493A3C8C582C8CCC583AF
:10024C00CCF0A3C8C582C8CCC583CCDFE9DEE7807F
:10025C000D89828A83E493A3F608DFF9ECFAA9F0FE
:10026C00EDFB2289828A83ECFAE0A3C8C582C8CC54
:10027C00C583CCF0A3C8C582C8CCC583CCDFEADE6D
:10028C00E880DB89828A83E493A3F208DFF980CCCF
:10029C0088F0EF60010E4E60C388F0ED2402B404C8
:1002AC000050B9F582EB2402B4040050AF2323456F
:0602BC00822390021C7376
:1002C200BB010689828A83E0225002E722BBFE023A
:0902D200E32289828A83E493226D
:1002DB00BB010CE58229F582E5833AF583E02250D8
:1002EB0006E92582F8E622BBFE06E92582F8E22222
:0D02FB00E58229F582E5833AF583E493223C
:10030800A3F8E0C5F025F0F0E582158270021583A8
:06031800E0C838F0E82205
:00000001FF
