:020000040800F2
:10000000100700200101000809330008A52A000894
:100010002D320008FF0A0008E13700080000000048
:10002000000000000000000000000000393300085C
:10003000030B0008000000000D3300083B330008EC
:100040001B0100081B0100081B0100081B01000820
:100050001B0100081B0100081B0100081B01000810
:100060001B0100081B0100081B0100081B01000800
:100070001B0100081B0100081B0100081B010008F0
:100080001B0100081B0100081B0100081B010008E0
:100090001B0100081B0100081B0100081B010008D0
:1000A0001B010008AD3300081B0100081B010008FC
:1000B0001B0100081B0100081B0100081B010008B0
:1000C0001B0100081B0100081B0100081B010008A0
:1000D0001B010008A9370008C53700081B010008EC
:1000E0001B0100081B0100081B010008DFF80CD0F1
:1000F00000F070FC00480047A553000810070020DE
:100100000648804706480047FEE7FEE7FEE7FEE7B1
:10011000FEE7FEE7FEE7FEE7FEE7FEE7A93300089D
:10012000ED0000082DE9F0410024061B254671F181
:10013000000605DA01240027D0EB070067EB010178
:10014000161E73F1000605DA0027D2EB070201251F
:1001500067EB030300F0FAF986460E4617469C4605
:10016000AC4204D00025D0EB050E65EB010624B1AE
:100170000020D2EB000760EB030C704631463A4694
:100180006346BDE8F081202A04DB203A21FA02F020
:100190000021704721FA02F3D040C2F120029140C1
:1001A000084319467047D2B201E000F8012B491EFE
:1001B000FBD270470022F6E710B513460A46044604
:1001C0001946FFF7F0FF204610BD421C10F8011B36
:1001D0000029FBD1801A704730B504460020034641
:1001E00000E05B1C934203D2E05CCD5C401BF8D086
:1001F00030BD70B5064603F035FB046805460A229B
:100200000021304600F0D3F92C6070BDF0B480EAD4
:100210000102D40F4200B2EB410F02D2024608465F
:1002200011464A0042D0C30DDDB2C1F3C752AD1A28
:10023000202D35DAC1F3160141F4000204B1524217
:10024000C5F1200602FA06F12A411044B3EBD05F53
:1002500023D0C4B1012DA0EBC35009DCF0BC4FF09A
:10026000004202EAC352DBB200F5000000F0E0B940
:10027000400000F1807000EBC350A0F1807040EAB4
:10028000D170490009E0490841EAC071A0EBC350B0
:1002900000F50000400800EBC350F0BC00F0BFB90F
:1002A0006142012202EB4101001BF6E7F0BC7047FE
:1002B00081F00041AAE780F00040A7E780EA010250
:1002C00010B502F00043400022D04A001FD0010EBA
:1002D00001EB1261C0F35600C2F3560240F4000075
:1002E00042F40002A0FB022000047F39140400D075
:1002F000401C50EA124001D44000491EC2B20C0614
:1003000004EBD010401C4008802A02D003E00020FB
:1003100010BD20F00100002900DA0020184310BDB4
:1003200030B480EA010202F0004530F0004221F0D2
:10033000004013D090B1C30DD40DC2F31601C0F329
:100340001600E41A41F4000140F400027D349142A9
:1003500001D3641C00E04900002C02DA30BC00200C
:1003600070474FF400000023914201D3891A0343E0
:1003700040084FEA4101F7D151B1914202D14FF00B
:10038000004105E002D24FF0010101E06FF00101F0
:1003900003EBC450284430BC00F041B92DE9FE4FB6
:1003A00081EA030404F0004421F0004100944FF07E
:1003B000000B23F0004350EA01045ED052EA03042C
:1003C0005BD0C3F30A54C1F30A552C44A4F2F334AE
:1003D0000194A0FB0254C1F3130141F48011C3F353
:1003E000130343F4801301FB024400FB034E840A11
:1003F000970A44EA815447EA8357A4FB07680295A9
:100400008D0A05FB07854FEA932C04FB0C54270546
:10041000029D4FEA065847EA1637B5EB08056EEB22
:10042000070C870E920E47EA811742EA8312A7FB58
:100430000201B6EB0B0164EB00042B0D43EA0C3315
:100440005E1844EB1C50DA465146E7FB0201C5F347
:1004500013044FEA0B3343EA14534FEA0432019C6E
:1004600043EA0603A4F10C040294009CCDE900B415
:1004700000F01BF903B0BDE8F08F00200146F9E75A
:10048000C10F80EAE0700844CA079623002100F0FB
:10049000CFB896230022114600F0CAB800F00042FF
:1004A00020F00040C10DC0F3160040F400007F2989
:1004B00001DA00207047962903DCC1F19601C8409B
:1004C00001E096398840002AF4D04042704720F07D
:1004D0000040C10DC0F3160040F400007F2901DA8E
:1004E00000207047962903DCC1F19601C84070478F
:1004F0009639884070470000002801DBC0F10040B9
:10050000002901DBC1F1004181427047002801DB75
:10051000C0F10040002901DBC1F100418842704771
:1005200030B50B46014600202022012409E021FAC3
:1005300002F59D4205D303FA02F5491B04FA02F5C0
:100540002844151EA2F10102F1DC30BD2DE9F05F57
:100550000546002092469B46884606468146402432
:100560001BE02846414647462246FFF70CFE53460D
:100570005A46C01A914110D311461846224600F03F
:100580003BFA2D1A67EB01084F4622460120002155
:1005900000F032FA17EB00094E41201EA4F10104CD
:1005A000DFDC484631462A464346BDE8F09F2DE948
:1005B000F04791460F4680460446002614F8015B3A
:1005C0002DB100F03BFA0068405DC007F6D12B2D3D
:1005D00002D02D2D18D0641E4A463946204600F020
:1005E00031FA27B13968A14201D1C7F800807105FD
:1005F0004FF002040BD54042002803DD03F032F92E
:100600000460A007BDE8F08746F48066E4E70028B0
:10061000F8DA03F027F904606FF00040F2E70029F0
:10062000A8BF7047401C490008BF20F00100704778
:1006300010B4B0FA80FC00FA0CF050EA010404BFD8
:1006400010BC704749B1CCF1200421FA04F411FA2E
:100650000CF118BF012121430843A3EB0C01CB1D72
:100660004FEA00614FEA102042BF002010BC7047E3
:1006700000EBC35010440029A4BF10BC7047401CBD
:10068000490008BF20F0010010BC704710B5141ECF
:1006900073F1000408DA401C41F1000192185B413B
:1006A0001A4301D120F0010010BD2DE9F04D924612
:1006B0009B4611B1B1FA81F202E0B0FA80F2203229
:1006C000904600F099F904460F4640EA0A0041EAD4
:1006D0000B0153465A46084313D0114653EA010012
:1006E00019D0C8F140025046FFF74DFD05460E46B1
:1006F00050465946424600F07FF9084305D0012094
:1007000004E020463946BDE8F08D0020054346EA66
:10071000E0762C4337430A986305E40AA0EB08000F
:100720000022FD0A44EA47540A3002D5002001465F
:10073000E9E7010510196941DDE90845001969413A
:10074000BDE8F04DA2E72DE9FE4F804681EA0300A7
:10075000C00F0C46009021F0004123F00045B8EB9B
:100760000200A94105D24046214690461C460B4650
:10077000024623F00040104347D0270DC7F30A007C
:10078000C3F30A510290401A019040286BDAC3F378
:10079000130040F4801B0098924620B10023D2EB56
:1007A000030A63EB0B0B01985946C0F14002504617
:1007B00000F022F906460D4650465946019A00F0CF
:1007C0002AF910EB08006141002487EA115284EAFB
:1007D000E7731A4340D0009A62B3019A012A4FEAA4
:1007E000075215DC001B61EB02014FF0004202EAE8
:1007F0000752CDE90042001C41F5801132462B46DC
:10080000FFF753FF03B0BDE8F08F40462146F9E7FC
:10081000001B61EB0201001C41F5801300185B41D5
:100820002018A2F5001747EB030140EAD570B6196E
:100830006D4111E06D084FEA360645EAC0754FEA92
:100840000752001B61EB0201001C41F580114908B1
:100850004FEA30000019514132462B4603B0BDE843
:10086000F04FFFF713BF0098012240000023D0EBA8
:10087000020263EBE073009821464FEAE074B8EBA4
:10088000000061EB0401E9E783F000435BE781F0DE
:10089000004158E72DE9F04D81EA030404F0004BD4
:1008A00021F0004514464FF0000A23F0004150EAC1
:1008B000050220D054EA01021DD0C5F30A570246B2
:1008C000C5F31303C1F31300C1F30A5640F48015B6
:1008D00043F48013A7EB0608101BD64608F2FD3838
:1008E00073EB050002D308F1010801E092185B41A7
:1008F000B8F1000F03DA00200146BDE8F08D0020BA
:100900004FF48011064684460EE0171B73EB050773
:1009100005D3121B63EB050306434CEA010C49089F
:100920004FEA300092185B4150EA0107EDD152EADC
:10093000030012D082EA040083EA0501084305D0CF
:10094000101BAB4106D20122002306E000224FF02B
:10095000004302E06FF0010253101AEB06004CEB6B
:10096000085110EB0A0041EB0B01BDE8F04DFFF719
:100970008DBEC1F30A52C1F3130140F2FF3341F4BB
:1009800080119A4202DA00200146704740F2334358
:100990009A42A2F2334202DC5242FFF7F4BB00F06B
:1009A0002BB8000030B5041E71F1000404DB4FF0D9
:1009B0000044404264EB0101141E73F1000405DBA6
:1009C0001C464FF00043524263EB0403994208BFB8
:1009D000904230BD064C074D06E0E06840F0010350
:1009E00094E8070098471034AC42F6D3FFF782FB37
:1009F0003073000850730008202A04DB203A00FA04
:100A000002F1002070479140C2F1200320FA03F365
:100A1000194390407047202A06DBCB17203A41FA51
:100A200002F043EAE07306E041FA02F3D040C2F17B
:100A30002002914008431946704700000048704763
:100A4000DC7200082DE9F05F824600780027154629
:100A50008B460AF10104B946302801D09DB113E05C
:100A600014F8010B0127782803D0582801D045B18C
:100A70000AE00DB1102D07D10027102514F8010B45
:100A800002E0082500E00A250026B0460EE005FB3E
:100A9000080005FB06F1012701EB10461FFA80F85C
:100AA000B6F5803F00D3B94614F8010B294600F093
:100AB00018F80028EBDABBF1000F05D00FB1641E67
:100AC00000E05446CBF80040B9F1000F06D002F028
:100AD000C9FE02210160C81EBDE8F09F48EA064039
:100AE000FAE73A2800D2303820F02002412A01D318
:100AF000A2F13700884201D34FF0FF30704700BFAA
:100B0000FEE7704770B53349B1F90010324AB2F9C7
:100B10000020881AFFF7B4FC304908602E48B0F96D
:100B20000000FFF7ADFC04462D4801682046FFF7A2
:100B3000E3FC02D000202B4908602B4927480068BD
:100B4000FFF7DAFC07D22548016826480068FFF75E
:100B50005DFB24490860254922480068FFF7D6FC60
:100B600003D222481F49086008E021491D48006857
:100B7000FFF7C2FC02D21E481A4908601D491E48F0
:100B80000068FFF79BFB04461C4914480068FFF708
:100B900095FB05462146FFF739FB194908600846D1
:100BA000016815480068FFF783FB04461548016893
:100BB0002046FFF7B5FB14490860114800680E494C
:100BC00008600548B0F90000FFF75AFC04490860C6
:100BD00070BD000042000020460000200C000020F4
:100BE00034000020100000200000A04100007A44E2
:100BF00000007AC49A99993E180000203333333F9D
:100C00001400002024000020200000202DE9F041E5
:100C1000254926480068FFF779FC1CD22448016862
:100C20002448FFF74BFB0746234881683846FFF707
:100C300045FB05462048016820480068FFF73EFB59
:100C400006462946FFF734FB04461D49FFF733FBF0
:100C50001C49086026E0164801681648FFF72EFB7D
:100C60000746154881683846FFF728FB05461248B5
:100C7000416815480068FFF721FB07460E480168E8
:100C80000E480068FFF71AFB80463946FFF7BEFAA8
:100C900006462946FFF70CFB04460949FFF70BFB04
:100CA00008490860BDE8F0810000A0410C00002068
:100CB000200000200000204100000020140000203F
:100CC000000025441C0000201000002072B600BF68
:100CD000FEE7000070B50446002594F821000228C4
:100CE00003D00420A063012548E02068006820F0BC
:100CF0000E00216808602068006820F0010021686B
:100D000008601F492068884201D1012026E01C4963
:100D100014312068884201D110201FE01849283181
:100D20002068884201D1801518E015493C312068BF
:100D3000884201D1801411E0114950312068884265
:100D400002D14FF4803009E00D49643120688842B7
:100D500002D14FF4801001E04FF08070084908394B
:100D60004860012084F8210000BF002084F82000A2
:100D700000BF606B10B12046616B8847284670BD8C
:100D80000800024070B5044600F0A6F90646254664
:100D9000681C10B104480078054400BF00F09CF9BD
:100DA000801BA842FAD370BD6C0000202DE9F847E3
:100DB0000346002294466EE14FF0010808FA02F45F
:100DC000D1F8008008EA0400A0427DD1DFF8DCA25F
:100DD000D1F80480A8EB0A09D0453AD014DCB8F168
:100DE000030F50D009DCB8F1000F31D0B8F1010F7A
:100DF0001CD0B8F1020F49D120E0B8F1110F18D082
:100E0000B8F1120F42D11EE0B9F5881F25D006DCDB
:100E1000B9F5803F20D0B9F5801F37D11AE0B9F578
:100E2000001F18D0B9F5041F30D117E0D1F80CC05D
:100E30002DE0D1F80C8008F1040C28E0D1F80C80EA
:100E400008F1080C23E0D1F80C8008F10C0C1EE02E
:100E500000BF00BF00BF00BF00BF00BFD1F80880C7
:100E6000B8F1000F02D14FF0040C0BE0D1F808806C
:100E7000B8F1010F03D14FF0080C1C6102E04FF0F4
:100E8000080C5C6103E04FF0000C00E000BF00BF05
:100E9000FF2801D8984601E003F104084646FF28E0
:100EA00002D84FEA820803E0A2F108084FEA880856
:100EB0004746D6F800804FF00F0909FA07F928EAEB
:100EC00009080CFA07F900E088E048EA0908C6F8C2
:100ED0000080D1F8048008F08058B8F1805F7DD19F
:100EE00000BFDFF8CC81D8F8188048F00108DFF89F
:100EF000C091C9F81880C846D8F8188008F00108D1
:100F0000CDF8008000BF00BF4FEAB9384FEA920920
:100F100058F829504FEA82784FEA18794FF00F08B5
:100F200008FA09F825EA0805DFF88881434502D167
:100F30004FF0000816E0DFF88081434502D14FF002
:100F400001080FE0DFF87481434502D14FF0020839
:100F500008E0DFF86C81434502D14FF0030801E05F
:100F60004FF004084FEA82794FEA197908FA09F834
:100F700048EA0505DFF84C814FEA920948F8295004
:100F8000D1F8048008F48038B8F5803F0AD1DFF842
:100F90003881D8F8008048EA0008DFF82C91C9F8B9
:100FA000008009E0DFF82081D8F8008028EA0008F6
:100FB000DFF81491C9F80080D1F8048008F40038F3
:100FC000B8F5003F10D1DFF8008108F10408D8F827
:100FD000008048EA0008DFF8F09000E05AE009F1EC
:100FE0000409C9F800800DE0DFF8DC8008F104088E
:100FF000D8F8008028EA0008DFF8CC9009F104094D
:10100000C9F80080D1F8048008F48018B8F5801F72
:101010000ED1DFF8B48008F10808D8F8008048EA5B
:101020000008DFF8A49009F10809C9F800800DE074
:10103000DFF8948008F10808D8F8008028EA000852
:10104000DFF8849009F10809C9F80080D1F804801C
:1010500008F40018B8F5001F0ED1DFF86C8008F115
:101060000C08D8F8008048EA0008DFF85C9009F125
:101070000C09C9F800800DE0DFF84C8008F10C087D
:10108000D8F8008028EA0008DFF83C9009F10C0944
:10109000C9F80080521CD1F8008028FA02F8B8F193
:1010A000000F7FF489AEBDE8F88700000000111042
:1010B0000010024000080140000C014000100140F7
:1010C0000014014008000140000401400AB1016120
:1010D00001E00B040361704701480068704700009D
:1010E0006400002070B504460CB9012070BD94F86E
:1010F0003D0028B9002084F83C00204600F03EFB6B
:10110000242084F83D002068006820F00100216858
:1011100008602068006840F400402168086020688A
:10112000006820F400402168086000F0FFFC0546DC
:101130005C496068884206D85B48854201D201203C
:1011400007E0002005E05948854201D2012000E077
:101150000020012800D1C9E75548B5FBF0F620680A
:10116000406820F03F003043216848604D49606886
:10117000884201D8701C07E04FF4967070434FF41A
:101180007A71B0FBF1F0401C2168096A21F03F013F
:1011900008432168086243496068884214D8681E81
:1011A00061684900B0FBF1F0401CC0F30B0004285B
:1011B00001D204203DE0681E61684900B0FBF1F0F7
:1011C000401CC0F30B0034E0A06838B9681E6168A9
:1011D00001EB4101B0FBF1F0401C0AE0681E6168C0
:1011E00001EBC10202EB0111B0FBF1F0401C40F435
:1011F0008040C0F30B0008B901201AE0A06848B98C
:10120000681E616801EB4101B0FBF1F0401CC0F3C6
:101210000B000CE0681E616801EBC10202EB0111DA
:10122000B0FBF1F0401CC0F30B0040F4804040F4F0
:1012300000402168C9694CF6FF7291430843216858
:10124000C861D4E9070108432168096821F0C00199
:10125000084321680860D4E90310084321688968BD
:1012600048F2FF329143084321688860D4E90501C0
:1012700008432168C96821F0FF0108432168C8605C
:101280002068006840F001002168086000202064A8
:10129000202084F83D000020206384F83E0000BF39
:1012A00024E70000A086010080841E0000093D00A4
:1012B00040420F002DE9FE4F04460F4690469946E6
:1012C000DDE90CAB0E9E00200290FFF705FF0546FE
:1012D00094F83D00202872D119230122CA492046E2
:1012E000009501F04FFD10B10220BDE8FE8F00BF58
:1012F00094F83C00012801D10220F6E7012084F88F
:101300003C0000BF2068006800F0010028B9206898
:10131000006840F00100216808602068006820F43F
:10132000006021680860222084F83D00402084F895
:101330003E0000202064C4F824A0A4F82AB0608DE8
:101340002085B248E0624B46424639462046CDE908
:10135000006501F0C9FB08B10120C6E7208D88B9FE
:1013600000BF0020019020684069019020688069DA
:10137000019000BF00BF2068006840F40070216841
:1013800008604BE0208D01281AD12068006820F405
:1013900080602168086072B600BF0020019020685C
:1013A0004069019020688069019000BF00BF2068FB
:1013B000006840F400702168086062B62EE020E109
:1013C000208D022819D12068006840F4006021684F
:1013D000086072B600BF002001902068406901904B
:1013E00020688069019000BF00BF2068006820F479
:1013F00080602168086062B610E02068006840F4F0
:1014000080602168086000BF00200190206840696A
:10141000019020688069019000BF00BFE2E0208D4C
:1014200003287DD8208D012815D12A463146204633
:1014300001F04DFD08B1012057E720680069616A9D
:101440000870606A401C6062208D401E2085608D9F
:10145000401E6085C6E0208D02282CD13346002234
:101460006B492046009501F08DFC08B101203CE756
:1014700072B62068006840F4007021680860206837
:101480000069616A0870606A401C6062208D401EBD
:101490002085608D401E608562B620680069616AA3
:1014A0000870606A401C6062208D401E2085608D3F
:1014B000401E608596E0334600225549204600953F
:1014C00001F060FC08B101200FE72068006820F4FB
:1014D00080602168086072B620680069616A0870DF
:1014E000606A401C6062208D401E2085608D401E19
:1014F0006085484800681921B0FBF1F04FF47A711B
:10150000B0FBF1F0C0EBC00000EB8000029000BF28
:101510000298401E02900298A8B90020206300E0C3
:1015200039E0202084F83D00002084F83E00206C43
:1015300040F02000206462B600BF002084F83C0028
:1015400000BF0120D1E620684069C0F38000002878
:10155000DED02068006840F40070216808602068D0
:101560000069616A0870606A401C6062208D401EDC
:101570002085608D401E608562B620680069616AC2
:101580000870606A401C6062208D401E2085608D5E
:10159000401E608526E02A463146204601F097FC31
:1015A00008B10120A1E620680069616A0870606ADC
:1015B000401C6062208D401E2085608D401E60852D
:1015C00020684069C0F3800060B120680069616AEA
:1015D0000870606A401C6062208D401E2085608D0E
:1015E000401E6085208D00287FF419AF202084F8EC
:1015F0003D00002084F83E0000BF84F83C0000BF9E
:1016000073E6022071E60000020010000000FFFFF8
:1016100004000100700000202DE9FC5F04460F4625
:1016200090469946DDE90CAB0E9EFFF755FD054649
:1016300094F83D0020287DD1192301224D492046F0
:10164000009501F09FFB10B10220BDE8FC9F00BF98
:1016500094F83C00012801D10220F6E7012084F82B
:101660003C0000BF2068006800F0010028B9206835
:10167000006840F00100216808602068006820F4DC
:10168000006021680860212084F83D00402084F833
:101690003E0000202064C4F824A0A4F82AB0608D85
:1016A00020853548E0624B46424639462046CDE922
:1016B000006501F0C9FA08B10120C6E731E02A4609
:1016C0003146204601F043FC50B1206C042805D17E
:1016D0002068006840F40070216808600120B4E7C9
:1016E000606A007821680861606A401C6062208D31
:1016F000401E2085608D401E608520684069C0F3D3
:10170000800070B1208D60B1606A00782168086146
:10171000606A401C6062208D401E2085608D401EE6
:101720006085208D0028CAD12A463146204601F026
:10173000FBFA00E01CE050B1206C042805D12068C1
:10174000006840F400702168086001207DE720688F
:10175000006840F4007021680860202084F83D0093
:10176000002084F83E0000BF84F83C0000BF6CE716
:1017700002206AE7020010000000FFFF10B586B0EB
:1017800004460020029003900490059015492068BB
:10179000884225D100BF1448806940F008001249F2
:1017A00088610846806900F00800019000BF00BF12
:1017B000C0200290122003900320059002A90B483C
:1017C000FFF7F4FA00BF0848C06940F4001006496A
:1017D000C8610846C06900F40010019000BF00BF56
:1017E00006B010BD0054004000100240000C014043
:1017F00003480068034909780844014908607047B4
:10180000640000206C00002010B50848006840F01B
:10181000100006490860032000F0A8F8002000F03E
:1018200007F800F02BF8002010BD00000020024057
:1018300070B504460E4800784FF47A71B1FBF0F0B1
:101840000C490968B1FBF0F5284600F00BFC08B123
:10185000012070BD102C07D200222146501E00F03E
:1018600047F80548046001E00120F2E70020F0E7B6
:101870006C000020700000206800002008B500BF48
:101880001148806940F001000F498861084680696D
:1018900000F00100009000BF00BF00BF0846C06913
:1018A00040F08050C8610846C06900F08050009048
:1018B00000BF00BF00BF0549486820F0E06040F06D
:1018C0000070486000BF08BD0010024000000140E9
:1018D00001460846002809DB00F01F0301229A4058
:1018E00043099B0003F1E023C3F8002100BF7047C8
:1018F0002DE9F05F80460D461646002701F096FF61
:10190000074639462A46334601F00700C0F1070A68
:10191000BAF1040F02D94FF0040A01E0C0F1070A3E
:10192000D14600F1040ABAF1070F02D24FF0000AC3
:1019300001E0A0F1030AD4464FF0010A0AFA09FABD
:10194000AAF1010A0AEA020A0AFA0CFA4FF0010B9C
:101950000BFA0CFBABF1010B0BEA030B4AEA0B048D
:101960002146404601F06AFFBDE8F09F00BF00F04D
:101970000702064B19684FF6FF031940044B0B434F
:1019800043EA0221014B196000BF70470CED00E0F3
:101990000000FA0570B504460D460CB9012070BD73
:1019A0005A48006800F00700A8420ED25748006865
:1019B00020F007002843554908600846006800F0F9
:1019C0000700A84201D00120E9E7207800F00200DA
:1019D00002281DD1207800F00400042805D14C48CD
:1019E000406840F4E0604A494860207800F0080010
:1019F000082805D14648406840F460504449486092
:101A00004348406820F0F000A1680843404948601E
:101A1000207800F0010078B36068012806D13C48C6
:101A2000006800F4003090B90120B8E7606802282F
:101A300006D13748006800F0007040B90120AEE7D9
:101A40003348006800F0020008B90120A7E73048D9
:101A5000406820F00300616808432D494860FFF7A3
:101A60003BFB064609E0FFF737FB801B41F288315C
:101A7000884202D9032092E707E02548406800F039
:101A80000C006168B0EB810FEDD12048006800F0D8
:101A90000700A8420ED91D48006820F0070028431F
:101AA0001A4908600846006800F00700A84201D003
:101AB000012074E7207800F00400042807D11448BE
:101AC000406820F4E060E1680843114948602078EC
:101AD00000F00800082808D10D48406820F4605044
:101AE000216940EAC1000A49486000F03FF808490E
:101AF0004968C1F30311074A515CC84006490860B0
:101B000006480068FFF794FE002048E700200240E6
:101B100000100240FC6500087000002068000020F2
:101B200001480068704700007000002000B5FFF712
:101B3000F7FF04494968C1F30221034A515CC840D8
:101B400000BD0000001002400C66000800B5FFF761
:101B5000E7FF04494968C1F3C221034A515CC84008
:101B600000BD0000001002400C660008F0B585B012
:101B70000FF26C0C9CE8E01001A8A0E8E0101CA596
:101B80002D68009500210022002300240020194D1B
:101B9000696801F00C05F5B1042D02D0082D19D1AA
:101BA00001E0154819E001ADC1F38346AC5D01F4D5
:101BB000803555B10F4D6D68C5F340451DF80520C2
:101BC0000D4D6543B5FBF2F302E00C4D04FB05F34C
:101BD000184602E000BF084800BF00BF05B0F0BDD6
:101BE00002030405060708090A0B0C0D0E0F10105E
:101BF000010200000010024000127A0000093D00BE
:101C0000F8B504460CB90120F8BD207800F00100B9
:101C1000002878D0F848406800F00C0004280CD068
:101C2000F548406800F00C00082811D1F2484068DF
:101C300000F48030B0F5803F0AD1EF48006800F42E
:101C4000003000285FD0606800285CD10120DBE70D
:101C500000BF6068B0F5803F06D1E748006840F4F7
:101C60008030E549086028E0606858B9E2480068BB
:101C700020F48030E04908600846006820F48020A5
:101C800008601AE06068B0F5A02F0BD1DA48006850
:101C900040F48020D84908600846006840F480304D
:101CA00008600AE0D448006820F48030D249086017
:101CB0000846006820F48020086000BF606888B192
:101CC000FFF70AFA054606E0FFF706FA401B64280C
:101CD00001D9032098E7C848006800F400300028C4
:101CE000F2D010E0FFF7F8F9054606E0FFF7F4F947
:101CF000401B642801D9032086E7BF48006800F430
:101D000000300028F2D1207800F00200022857D1DC
:101D1000B948406800F00C0050B1B748406800F086
:101D20000C00082818D1B448406800F4803098B9F5
:101D3000B148006800F0020020B12069012801D0FC
:101D4000012061E7AC48006820F0F800616940EAD2
:101D5000C100A949086033E02069E8B10120A74922
:101D60000860FFF7B9F9054606E0FFF7B5F9401B33
:101D7000022801D9032047E79F48006800F00200CD
:101D80000028F2D09C48006820F0F800616940EA21
:101D9000C1009949086013E0002098490860FFF7E6
:101DA0009BF9054606E0FFF797F9401B022801D989
:101DB000032029E79048006800F002000028F2D1D3
:101DC000207800F0080008282DD1A069B8B10120C2
:101DD0008B490860FFF780F9054606E0FFF77CF9BC
:101DE000401B022801D903200EE78348406A00F017
:101DF00002000028F2D0012001F08AFA13E000204E
:101E00007F490860FFF768F9054606E0FFF764F9C7
:101E1000401B022801D90320F6E67748406A00F00B
:101E200002000028F2D1207800F00400042873D1C9
:101E300000277148C06900F0805070B900BF6E483B
:101E4000C06940F080506C49C8610846C06900F024
:101E50008050009000BF00BF01276A48006800F46E
:101E60008070B0B96748006840F4807065490860C8
:101E7000FFF732F9054606E0FFF72EF9401B64280C
:101E800001D90320C0E65F48006800F48070002894
:101E9000F2D000BFE068012806D15748006A40F040
:101EA00001005549086227E0E06858B95248006AC5
:101EB00020F00100504908620846006A20F0040042
:101EC000086219E0E06805280BD14B48006A40F031
:101ED0000400494908620846006A40F001000862AF
:101EE0000AE04548006A20F00100434908620846BC
:101EF000006A20F00400086200BFE068A0B1FFF7AC
:101F0000EBF8054609E0FFF7E7F8401B41F288319E
:101F1000884202D9032077E622E03748006A00F0C1
:101F200002000028EFD012E0FFF7D6F8054608E0DF
:101F3000FFF7D2F8401B41F28831884201D90320D3
:101F400062E62D48006A00F002000028F0D1012F5F
:101F500005D12948C06920F080502749C86100BFD9
:101F6000E069C8B32448406800F00C00082860D03D
:101F7000E069022848D1002020490866FFF7ACF844
:101F8000054606E0FFF7A8F8401B022801D9032008
:101F90003AE61948006800F000700028F2D1206A83
:101FA000B0F5803F07D11448406820F40030A168A4
:101FB000084311494860D4E9080108430E494968BB
:101FC00021F4741108430C49486001200B4908664C
:101FD000FFF782F8054607E03DE0FFF77DF8401B7C
:101FE000022801D903200FE60348006800F00070C2
:101FF0000028F2D02FE00000001002400000424212
:102000008004424200700040002014490866FFF737
:1020100063F8054606E0FFF75FF8401B022801D988
:102020000320F1E50E48006800F000700028F2D1AE
:1020300011E0E069012800D1E6E50948466806F4A8
:102040008031206A814204D106F47011606A8142B5
:1020500001D00120D8E50020D6E500000000424272
:102060000010024070B504462546681EB0F1807F1E
:1020700001D301200FE0681E4FF0E02148610F21DD
:102080004FF0FF3001F0DAFB00204FF0E0218861D3
:1020900007200861002070BD7047704730B50246C8
:1020A0000B4600BF92F83C00012801D1022030BD50
:1020B000012082F83C0000BF022082F83D00106839
:1020C00044681068816824F070041868044310683C
:1020D0004460104D1068A8420BD01068B0F1804FDA
:1020E00007D00D4D1068A84203D00C4D1068A842CF
:1020F00005D121F0800158680143106881600120FA
:1021000082F83D0000BF002082F83C0000BF00BF05
:10211000CDE70000002C0140000400400008004012
:1021200010B504460CB9012010BD94F83D0028B943
:10213000002084F83C00204600F026F8022084F8B5
:102140003D00211D206801F05BF9012084F8460064
:1021500000BF84F83E0001213F2001554020015579
:102160004120015500BF00BF012084F842004320F8
:102170000155442001554520015500BF012084F838
:102180003D000020D0E7000038B504460D49206826
:10219000884215D100BF0C48806940F400600A49AC
:1021A00088610846806900F40060009000BF00BFAD
:1021B000002201211920FFF79BFB1920FFF788FB64
:1021C00038BD0000002C014000100240014691F88B
:1021D0003D00012801D001207047022081F83D0018
:1021E0000868C06840F001000B68D860124B0868AE
:1021F00098420BD00868B0F1804F07D00F4B0868A9
:10220000984203D00E4B086898420CD10868806849
:1022100000F00702062A0CD00868006840F00100B0
:102220000B68186005E00868006840F001000B6862
:1022300018600020D0E70000002C0140000400409E
:10224000000800402DE9F04104460D4600BF94F817
:102250003C00012802D10220BDE8F081012084F871
:102260003C0000BF022084F83D002068866826F00C
:10227000770626F47F46206886602868502833D089
:102280000CDC202850D004DC00284BD0102851D181
:1022900049E0302849D040284CD139E060282DD081
:1022A000702807D0B0F5805F03D0B0F5005F41D152
:1022B0000DE040E0D5E902136A68206801F0DAF821
:1022C0002068866846F077062068866033E0D5E9A6
:1022D00002136A68206801F0CDF82068806840F435
:1022E00080402168886026E0EA686968206801F01B
:1022F000D5F85021206801F0C8F81CE0EA68696848
:10230000206801F0DEF86021206801F0BEF812E0DC
:10231000EA686968206801F0C1F84021206801F08E
:10232000B4F808E000BF00BF00BF2968206801F0D2
:10233000ACF800E000BF00BF012084F83D0000BF02
:10234000002084F83C0000BF00BF85E7704710B54F
:10235000044620680069C0F34000D8B12068C06816
:10236000C0F34000B0B16FF00200216808610120A5
:1023700020772068806900F0030018B12046FFF73D
:10238000E5FF05E0204600F0ADF8204600F0ABF890
:102390000020207720680069C0F38000D8B1206851
:1023A000C068C0F38000B0B16FF00400216808611C
:1023B000022020772068806900F4407018B1204620
:1023C000FFF7C4FF05E0204600F08CF8204600F03F
:1023D0008AF80020207720680069C0F3C000D8B1D7
:1023E0002068C068C0F3C000B0B16FF00800216879
:1023F0000861042020772068C06900F0030018B14C
:102400002046FFF7A3FF05E0204600F06BF82046CA
:1024100000F069F80020207720680069C0F3001000
:10242000D8B12068C068C0F30010B0B16FF01000E0
:1024300021680861082020772068C06900F4407096
:1024400018B12046FFF782FF05E0204600F04AF869
:10245000204600F048F8002020772068006900F04E
:10246000010058B12068C06800F0010030B16FF081
:10247000010021680861204600F036F820680069F4
:10248000C0F3C01058B12068C068C0F3C01030B1AC
:102490006FF08000216808612046FFF7FDFD20688D
:1024A0000069C0F3801058B12068C068C0F3801084
:1024B00030B16FF0400021680861204600F015F847
:1024C00020680069C0F3401058B12068C068C0F3AC
:1024D000401030B16FF02000216808612046FFF7FE
:1024E000DCFD10BD704770477047704770470000B3
:1024F0002DE9F0470446206805682068C668206812
:1025000047694FF00008C14605F00F08B8F1000F09
:102510000AD105F0200038B106F0200020B1204695
:1025200001F00DF8BDE8F087B8F1000F71D007F0A9
:10253000010018B906F4907000286AD005F0010077
:1025400030B106F4807018B1E06B40F00100E06338
:1025500005F0040030B107F0010018B1E06B40F065
:102560000200E06305F0020030B107F0010018B18D
:10257000E06B40F00400E06305F0080048B106F0AD
:10258000200010B907F0010018B1E06B40F008001E
:10259000E063E06B68B305F0200028B106F020008E
:1025A00010B1204600F0CBFF20684069C0F38019CD
:1025B000E06B00F0080010B9B9F1000F22D02046FE
:1025C00000F09DFF2068406900F04000B0B1206835
:1025D000406920F0400021684861606B50B11848A4
:1025E000616B4863606BFEF775FB10B1606B416B0C
:1025F00088470CE02046FFF779FF08E02046FFF708
:1026000075FF04E02046FFF771FF0020E06389E7D3
:10261000FFE705F0800030B106F0800018B12046D9
:1026200001F05CF87EE705F0400030B106F04000B4
:1026300018B1204600F073FF74E700BF72E7000096
:10264000EB34000810B504460CB9012010BDA06998
:1026500000B100E000BF94F8390028B9002084F8E8
:102660003800204600F028F8242084F8390020683B
:10267000C06820F400502168C860204600F0B0FF18
:102680002068006920F49040216808612068406952
:1026900020F02A00216848612068C06840F400509A
:1026A0002168C8600020E063202084F8390084F8A5
:1026B0003A000020CAE7000010B586B004460020AA
:1026C000029003900490059057492068884238D1C1
:1026D00000BF5648806940F48040544988610846EC
:1026E000806900F48040019000BF00BF00BF084631
:1026F000806940F0040088610846806900F00400A9
:10270000019000BF00BF48150290022003900320F3
:10271000059002A94648FEF749FB4FF480600290FD
:10272000002003900220049002A94148FEF73EFBDE
:10273000002202212520FFF7DBF82520FFF7C8F84B
:102740006FE03C492068884237D100BF3748C069F4
:1027500040F400303549C8610846C06900F40030D3
:10276000019000BF00BF00BF0846806940F0040030
:1027700088610846806900F00400019000BF00BF36
:1027800004200290022003900320059002A928480B
:10279000FEF70CFB0820029000200390022004901A
:1027A00002A92348FEF702FB002203212620FFF79F
:1027B0009FF82620FFF78CF833E01F4920688842F5
:1027C0002FD100BF1948C06940F480201749C86163
:1027D0000846C06900F48020019000BF00BF00BF20
:1027E0000846806940F0080088610846806900F06A
:1027F0000800019000BF00BF08150290022003905E
:102800000320059002A90D48FEF7D0FA4FF40060AE
:102810000290002003900220049002A90748FEF7CE
:10282000C5FA06B010BD000000380140001002409B
:10283000000801400044004000480040000C0140F6
:1028400010B5034693F83A0020282FD101B10AB9F8
:10285000012010BD00BF93F83800012801D10220EB
:10286000F7E7012083F8380000BF99629A85DA857E
:102870000020D863222083F83A0000BF002083F8AC
:10288000380000BF1868C06840F480701C68E060C1
:102890001868406940F001001C6860611868C068F1
:1028A00040F020001C68E0600020D2E70220D0E762
:1028B00010B504463E49206888423CD13D48008816
:1028C00000F4404030BB3C4800780D2806D1394820
:1028D000008840F400403749088068E035480088A7
:1028E00009280EDA344800780A280AD032480178DC
:1028F000304802880088401C2E4B18802F48815495
:1029000055E000202B4908802C48002101604160DF
:1029100001814CE02748008800F4004010B103F02A
:1029200077FD44E00020234908802448002101600D
:10293000416001813BE022492068884237D121482B
:10294000008800F4404010BB1F4800780D2806D1D5
:102950001C48008840F400401A49088027E01948C4
:10296000008809280ADA1848017816480288008881
:10297000401C144B18801548815418E00020114960
:102980000880124800210160416001810FE00D487C
:10299000008800F4004010B103F018FD07E00020AB
:1029A000084908800948002101604160018110BD8B
:1029B000003801405C00002098010020E600002063
:1029C000004400405E000020A2010020F000002032
:1029D0002DE9F84F04460E46174699464FF0000A77
:1029E00094F8390020285AD106B117B90120BDE862
:1029F000F88F00BF94F83800012801D10220F6E7D3
:102A0000012084F8380000BF0020E063212084F812
:102A10003900FEF761FB8246A784E784A068B0F521
:102A2000805F04D1206910B90025B04602E0354628
:102A30004FF0000800BF002084F8380000BF1BE002
:102A40005346002280212046CDF8009000F076FE0B
:102A500008B10320CBE745B9B8F80000C0F308007F
:102A60002168486008F1020803E02878216848607E
:102A70006D1CE08C401EE084E08C0028E0D15346C1
:102A8000002240212046CDF8009000F057FE08B10A
:102A90000320ACE7202084F839000020A7E70220BB
:102AA000A5E7704700BFFEE7014608684069C0F32C
:102AB0008020B0B16FF480600A6850610020086324
:102AC000202081F83D00002081F83E00086C40F095
:102AD0000400086400BF002081F83C0000BF012012
:102AE00070470020FCE700002DE9F84304460F463C
:102AF00015469946DDE908862068006840F4806044
:102B0000216808602068006840F4807021680860CF
:102B1000434600224FF001112046009600F032F9A2
:102B200060B12068006800F48070B0F5807F02D149
:102B30004FF4007020640320BDE8F88307F0FE0026
:102B400021680861334642463E49204600F05DF95F
:102B500008B10120F0E700BF002000902068406924
:102B6000009020688069009000BF00BF3246414657
:102B7000204600F0ECF950B1206C042805D1206803
:102B8000006840F40070216808600120D4E7B9F1C2
:102B9000010F03D1E8B22168086117E0C5F30720EF
:102BA0002168086132464146204600F0D0F950B114
:102BB000206C042805D12068006840F4007021686A
:102BC00008600120B8E7E8B2216808613246414652
:102BD000204600F0BCF950B1206C042805D12068D3
:102BE000006840F40070216808600120A4E72068B4
:102BF000006840F4807021680860434600224FF06E
:102C000001112046009600F0BDF858B12068006818
:102C100000F48070B0F5807F02D14FF40070206422
:102C2000032089E7F8B240F00100216808613346CB
:102C300042460449204600F0E8F808B101207BE74D
:102C4000002079E7020001002DE9F8430446884698
:102C500015469946DDE908672068006840F48070F1
:102C600021680860334600224FF00111204600978A
:102C700000F088F860B12068006800F48070B0F55A
:102C8000807F02D14FF4007020640320BDE8F883F8
:102C900008F0FE00216808613B4632462149204683
:102CA00000F0B3F808B10120F0E700BF0020009069
:102CB00020684069009020688069009000BF00BFD4
:102CC0003A463146204600F042F950B1206C0428C3
:102CD00005D12068006840F4007021680860012078
:102CE000D4E7B9F1010F03D1E8B22168086117E018
:102CF000C5F30720216808613A463146204600F0B6
:102D000026F950B1206C042805D12068006840F4F1
:102D10000070216808600120B8E7E8B22168086106
:102D20000020B3E70200010070B504460D461646C8
:102D300020E02046FFF7B8FE08B1012070BD681CF6
:102D4000C0B1FEF7C9F9801BA84200D895B9002090
:102D50002063202084F83D00002084F83E00206C91
:102D600040F02000206400BF002084F83C0000BF39
:102D70000120E3E720684069C0F380000028D8D034
:102D80000020DBE72DE9F04104460D4617461E46BC
:102D9000DDF818801CE0701CD0B1FEF79DF9A0EBA7
:102DA0000800B04200D89EB900202063202084F89B
:102DB0003D00002084F83E00206C40F0200020649C
:102DC00000BF002084F83C0000BF0120BDE8F08176
:102DD000C5F3074001280AD120684069A9B208401C
:102DE000A9B2884201D101200BE0002009E020684F
:102DF0008069A9B20840A9B2884201D1012000E04F
:102E00000020B842C7D00020E0E72DE9F041044699
:102E10000D4616461F463DE020684069C0F38020FD
:102E2000E8B12068006840F40070216808606FF421
:102E300080602168486100202063202084F83D00E4
:102E4000002084F83E00206C40F00400206400BFA5
:102E5000002084F83C0000BF0120BDE8F081701C18
:102E6000C0B1FEF739F9C01BB04200D896B90020B6
:102E70002063202084F83D00002084F83E00206C70
:102E800040F02000206400BF002084F83C0000BF18
:102E90000120E2E7C5F3074001280AD12068406914
:102EA000A9B20840A9B2884201D101200BE000205C
:102EB00009E020688069A9B20840A9B2884201D11E
:102EC000012000E000200028A6D00020C5E770B552
:102ED00004460D46164632E020684069C0F30010F3
:102EE000A0B16FF01000216848610020206320200D
:102EF00084F83D00002084F83E00206C206400BF70
:102F0000002084F83C0000BF012070BDFEF7E4F80B
:102F1000801BA84200D895B900202063202084F8A7
:102F20003D00002084F83E00206C40F0200020642A
:102F300000BF002084F83C0000BF0120E5E72068C6
:102F40004069C0F380100028C6D00020DDE770B5CE
:102F500004460D46164620E02046FFF7A5FD08B1C1
:102F6000012070BD681CC0B1FEF7B6F8801BA842F6
:102F700000D895B900202063202084F83D0000206F
:102F800084F83E00206C40F02000206400BF002048
:102F900084F83C0000BF0120E3E720684069C0F3EB
:102FA000C0100028D8D00020DBE70000FEB50446A2
:102FB0000D4616461F4640F6FF70610001232A4663
:102FC000CDE9007602900248FEF774F90020FEBDBC
:102FD000FC000020FEB504460D4616461F4640F68E
:102FE000FF70610001232A46CDE900760290024875
:102FF000FEF712FB0020FEBDFC00002000B585B0EE
:103000000020019002900390049000BF2F48806937
:1030100040F010002D4988610846806900F01000DA
:10302000009000BF00BF00BF0846806940F020004C
:1030300088610846806900F02000009000BF00BF52
:1030400000BF0846806940F0040088610846806936
:1030500000F00400009000BF00BF00BF0846806978
:1030600040F0080088610846806900F00800009080
:1030700000BF00BF002270211548FEF727F800228C
:1030800007211448FEF722F87020019001200290D9
:10309000002003900220049001A90D48FDF786FE50
:1030A000802001900320029001A90948FDF77EFECF
:1030B000072001900120029000200390022004903C
:1030C00001A90448FDF772FE05B000BD00100240E2
:1030D00000080140000C014010B50B480B49086086
:1030E0000B484860002109488160C1604FF480416D
:1030F0000161002141618161C1610162FDF7F2FF5F
:1031000008B1FDF7E3FD10BD00540040FC000020B5
:10311000801A060000B587B0002003900490059047
:1031200006900190029015481549086047204860B4
:1031300000211348816042F20F71C16000210161DA
:1031400041618161FEF7ECFF08B1FDF7BFFD4FF46F
:103150008050039003A90A48FFF774F808B1FDF7FF
:10316000B5FD00200190029001A90548FEF796FFE9
:1031700008B1FDF7ABFD07B000BD0000002C014019
:103180005001002010B50B480B4908604FF4165051
:103190004860002108488160C16001610C214161E3
:1031A00000218161C161FFF74DFA08B1FDF78EFD85
:1031B00010BD000000380140AC01002010B50B48E4
:1031C0000B4908604FF49640486000210848816030
:1031D000C16001610C21416100218161C161FFF782
:1031E00031FA08B1FDF772FD10BD00000044004047
:1031F000EC01002010B50B480B4908604FF4165045
:103200004860002108488160C16001610C21416172
:1032100000218161C161FFF715FA08B1FDF756FD84
:1032200010BD0000004800402C02002000BFFEE757
:1032300070B52D4800682D4908602D4801682D485B
:10324000FDF736F82C4908602C480068FDF726F990
:10325000054626480068FDF721F92C1A002C01DBF1
:10326000204600E06042322838DA25491F480068CD
:10327000FDF74CF903D222481C49086008E02149B7
:103280001A480068FDF738F902D21E48174908604D
:103290004FF07E5118480068FDF72EF904D24FF028
:1032A0007E50154908600AE04FF07E5112480068D0
:1032B000FDF72CF903D24FF07E500F4908600E48FD
:1032C0000068FDF704F984B208480068FDF7FFF8CC
:1032D00085B222462946012002F09CF80348006886
:1032E0000649086070BD00001C0000202800002076
:1032F00020000020000020412C0000203000002091
:1033000000803B4400800E4400BFFEE77047000091
:1033100008B508490968C9084FF47A72B1FBF2F19F
:103320004143009100BF00BF00994A1E009200294E
:10333000F9D108BD70000020704710B5FEF758FAAB
:1033400010BD00B58FB0282105A8FCF733FF14216C
:103350006846FCF72FFF012005900004069000202E
:1033600007900120099002200C90C1030D914FF4A9
:10337000E0110E9105A8FEF743FC08B1FDF7A6FC8D
:103380000F20009002200190002002904FF48060F6
:1033900003900020049002216846FEF7FBFA08B172
:1033A000FDF794FC0FB000BD7047000010B5124847
:1033B0000068401C104908601048FEF7C8FF0E481E
:1033C0000068012804D1FDF79DFBFDF71FFC12E00A
:1033D0000948006802280ED00748006803280AD070
:1033E00005480068042806D003480068052802D074
:1033F00000200149086010BD60000020500100203D
:1034000010B50268184B984208D0B0F1804F05D033
:10341000164B984202D0164B984203D122F070020C
:103420004B681A43104B984208D0B0F1804F05D03A
:103430000E4B984202D00E4B984203D122F44072B8
:10344000CB681A4322F080034C6943EA040202600D
:103450008B68C3620B688362034B984201D10B698E
:1034600003630123436110BD002C014000040040B0
:103470000008004030B50C46816821F47F4142EAE3
:10348000032525432943816030BD0A46816821F028
:10349000700142F0070319438160704730B50B4655
:1034A0001446026A056A25F001050562816921F06A
:1034B000F00141EA041122F00A021A43816102621A
:1034C00030BD30B50B461446056A25F0100505627F
:1034D0008169026A21F4704141EA043122F0A002BC
:1034E00042EA03128161026230BD70B505466C6A22
:1034F0000020E085E0842046FEF7F8FF70BD0168FB
:10350000C96821F490710268D1600168496921F0AD
:10351000010102685161202180F83A10704710B50E
:1035200004462068C06820F040002168C860202060
:1035300084F839002046FFF7B4FA002010BD70B5BA
:10354000044694F83A00222847D1A068B0F5805F7D
:103550000CD1206950B90025A66A20684068C0F3E4
:1035600008003080A06A801CA06215E0A56A0026D1
:10357000A068B0F5805F03D0A06828B9206918B9A9
:1035800020684068287004E02068406800F07F00F0
:103590002870A06A401CA062E08D401E80B2E085C9
:1035A000C8B92068C06820F020002168C860206881
:1035B000C06820F480702168C8602068406920F0ED
:1035C000010021684861202084F83A002046FFF776
:1035D0006FF9002070BD0020FCE70220FAE7000030
:1035E00070B504462168096921F44051E26811432D
:1035F000226811612269A1681143626941EA0205EA
:103600002168C96841F20C62914329432268D16064
:103610002168496921F44071A2691143226851610E
:103620002D4A2168914202D1FEF790FA01E0FEF79F
:103630007DFA00EBC00101EB001162689200B1FB62
:10364000F2F100EBC00202EB001263689B00B2FBD8
:10365000F3F26423B2FBF3F202EBC20303EB0212B8
:10366000A1EB8201322202EB01116422B1FBF2F1E3
:1036700001F0F00100EBC00202EB001263689B0056
:10368000B2FBF3F26423B2FBF3F201EB021200EBA4
:10369000C00101EB001163689B00B1FBF3F100EB8B
:1036A000C00303EB00136668B600B3FBF6F36426B1
:1036B000B3FBF6F303EBC30606EB0313A1EB8301A5
:1036C000322303EB01116423B1FBF3F101F00F018D
:1036D00011442268916070BD00380140014691F8A4
:1036E0003900212828D18868B0F5805F0BD108699E
:1036F00048B90A6A1088C0F308000B685860086A65
:10370000801C086205E00B6A581C086218780B6878
:103710005860C88C401E80B2C88458B90868C06818
:1037200020F080000B68D8600868C06840F0400056
:103730000B68D860002070470220FCE72DE9F041BB
:1037400004460D4617469846069E21E0701CF8B1C7
:103750002EB1FDF7C1FCA0EB0800B04218D92068DB
:10376000C06820F4D0702168C8602068406920F0EB
:10377000010021684861202084F8390084F83A006B
:1037800000BF002084F8380000BF0320BDE8F081AE
:10379000206800682840A84201D1012000E00020F4
:1037A000B842D3D00020F1E710B50448FEF7A0FEE0
:1037B000012203490148FFF743F810BDAC01002086
:1037C0009801002010B50448FEF792FE012203493B
:1037D0000148FFF735F810BDEC010020A2010020E0
:1037E00000BFFEE70FB4054B10B503A9044A0298C9
:1037F00000F00EF910BC5DF814FB0000DD4C000871
:10380000AC0000200FB4084B10B504A902AA03981D
:1038100000F0FEF8044602A9002000F090FC2046CB
:1038200010BC5DF814FB00003F410008024800682E
:10383000C0F30220704700000CED00E010B5002836
:1038400004DB0A07130E054A135406E00A07140E98
:10385000034A00F00F031B1FD45410BD00E400E026
:1038600018ED00E000487047B000002002E008C8F2
:10387000121F08C1002AFAD170477047002001E0EA
:1038800001C1121F002AFBD1704700002DE9FF5F24
:1038900082B00021DDE90430020DDDF840B00343C1
:1038A00018D044F61050A2F2FF324243151411987A
:1038B00001281FD0A5EB0B00401C5FEA000A4FF067
:1038C00000064E4FDFF83891B046504615D5CAF184
:1038D000000413E0119801244AA3012801D16FEAE2
:1038E0000B010298119AC0E90031C0E9024206B00A
:1038F000BDE8F09FCBF10000DFE704460021404A1D
:10390000491842EB0450CDE9001012E0E00707D05F
:1039100032463B4640464946FCF740FD80468946D4
:1039200032463B4610461946FCF738FD06460F4620
:103930006410002CEAD1DDE90401DDE90023BAF1CD
:10394000000F06DAFCF72AFD42464B46FCF726FD3F
:1039500005E0FCF79FFF42464B46FCF79BFF044601
:103960000E460022284BFDF71DF803D84FF0FF301C
:10397000014607E00022254B20463146FCF7E3FED6
:10398000FCF7F7FF102409E0002C0ADB0A220023D1
:10399000FCF7DCFD039B30321A55641E50EA01022D
:1039A000F2D1641C039AC4F111031444119A012A40
:1039B00003D0012208430DD10AE0084304D00020BF
:1039C0004FF0110B119072E7A3EB0B056D1E0DE08C
:1039D0005B4504DD4FF0000205F1010504E003DA68
:1039E0004FF00002A5F10105002AECD002981199D0
:1039F000C0E90231C0E9004579E700000000144049
:103A00000000F03F300000000000F0430000E03F05
:103A10002DE9FF4F95B09B468946064600250FE2EB
:103A2000252877D100242746F84A0121059400E093
:103A3000044316F8013F203B01FA03F01042F7D18E
:103A400030782A2811D06FF02F033078A0F130029F
:103A5000092A16D8059A44F0020402EB820203EB0D
:103A600042021044761C0590EFE759F8042B0592AA
:103A7000002A03DA504244F40054059044F0020452
:103A8000761C30782E2816D116F8010F44F0040465
:103A90002A280DD06FF02F023078A0F13003092BC7
:103AA00009D807EB870302EB4303C718761CF3E73B
:103AB00059F8047B761C30786C280FD006DC4C2833
:103AC00017D068280DD06A2814D104E0742810D0CB
:103AD0007A280FD10DE044F400140AE044F4801475
:103AE00001E044F440147278824202D104F580145B
:103AF000761C761C307866280BD013DC582877D0DB
:103B000009DC002875D04528F6D04628F4D047288F
:103B10001AD19DE118E0632835D0642879D0652852
:103B200012D195E1702873D008DC6728F1D069289C
:103B30006FD06E280DD06F2806D1B5E073282CD039
:103B4000752875D0782874D05A46179990476D1CFF
:103B500075E1C4F30250022809D003280DD0D9F82A
:103B6000001004280DD00D6009F1040967E1D9F8AF
:103B70000010EA17C1E90052F6E7D9F800100D80ED
:103B8000F2E70D70F0E719F8041B8DF80010002023
:103B90008DF80100EA46012003E059F804AB4FF02C
:103BA000FF3061074FF0000102D40DE008F1010180
:103BB0008846B9420FDA8045F8DB1AF80810002968
:103BC000F4D108E008F1010188468142FADB1AF8D5
:103BD00008100029F6D105985B46A0EB080721469E
:103BE0003846179A00F094FA284400EB080507E0DD
:103BF0004DE029E10DE01AF8010B5A46179990475C
:103C0000B8F10108F7D25B4621463846179A13E10E
:103C100042E00A220092C4F302524FF0000A022A44
:103C200008D059F804CB032A4FEAEC710AD00DE012
:103C300029E02AE009F1070121F00702F2E802C1B8
:103C4000914609E00FFA8CFC4FEAEC71042A03D18B
:103C50004FFA8CFC4FEAEC71002907DA0A46002182
:103C6000DCF1000C61EB02012D2202E0220504D5FB
:103C70002B228DF80420012203E0E20701D020224C
:103C8000F7E7904659E00A2102E010220DE01021EA
:103C90004FF0000A00910BE010224FF0000A44F0B0
:103CA00004040827009203E008224FF0000A009263
:103CB000C4F30252022A05D059F804CB0021032A8A
:103CC00008D009E009F1070121F00702F2E802C17A
:103CD000914605E01FFA8CFC042A01D10CF0FF0C80
:103CE0004FF00008220728D5702806D0009B83F0EB
:103CF000100353EA0A0305D00EE040228DF8042099
:103D0000012208E05CEA010206D030228DF804208E
:103D10008DF8050002229046009B83F0080353EAC9
:103D20000A030AD15CEA010201D1620705D53022FB
:103D30008DF804204FF001087F1E582804D034A0CD
:103D400003900EA802900DE036A0F9E753466046B6
:103D5000009AFCF7FBFB84460398825C0298401EA5
:103D6000029002705CEA0100F0D1029806A9081ADC
:103D700000F1200A600702D524F4803400E0012716
:103D8000574502DDA7EB0A0000E0002000EB0A0126
:103D9000009005984144401A0590E00306D45B4624
:103DA0002146179A059800F0B3F90544002706E06C
:103DB00001A85A46C05D179990476D1C7F1C474566
:103DC000F6DBE0030CD55B462146179A059800F018
:103DD0009FF9054404E030205A46179990476D1C1E
:103DE0000099481E00900029F5DC08E0029802992D
:103DF0005A460078491C0291179990476D1CBAF1F8
:103E00000001AAF1010AF1DC65E1000009280100C6
:103E10003031323334353637383961626364656640
:103E20000000000030313233343536373839414202
:103E3000434445460000000000F058F90544761C54
:103E4000307800287FF4ECAD19B02846BDE8F08F3B
:103E5000620700D4062709F1070222F0070CFCE8EC
:103E60000223E14603F000485FEA080C02D00FF29B
:103E7000702C0DE05FEA045C02D50FF2682C07E0BD
:103E80005FEAC47C02D00FF2602C01E0AFF2700C4C
:103E90004FF0FF3823F00043CDF850C065280CD018
:103EA00006DC452809D046281DD047283DD13DE0F5
:103EB000662818D067287ED138E00021112F01DB59
:103EC000112000E0781CCDE9000106A90EA8FFF73B
:103ED000DDFCDDE90F010E9A03910021009207F14C
:103EE000010A04914DE04FF000400097CDE9011028
:103EF00006A90EA8FFF7CAFCDDE90F0203920E9B8C
:103F000011990022DDF80CA00093049211B9791CDC
:103F100000EB010AB7EB0A0004D4C0F1FF3007F14F
:103F2000010A0490AAEB0700019044E0012F00DA97
:103F300001270021112F01DD112000E03846CDE9D5
:103F4000000106A90EA8FFF7A1FCDDE90F010E9AFA
:103F50000391002104910092BA4621070CD40399E1
:103F6000514500DA8A46BAF1010F05DD009AAAF13F
:103F70000101515C302908D0B84202DA10F1040F77
:103F800006DA0121CDE9011015E0AAF10101E9E706
:103F9000002805DC049901440491AAEB000102E029
:103FA000411C514500DD8A460499401A401C01908D
:103FB0004FF000400290200704D40198504501DBE7
:103FC000CDF8048000208DF84F0002980DF14F07C6
:103FD000B0F1004F25D02B200E9002984FF0020830
:103FE00000280CDA404202902D200E9007E00A21B2
:103FF0000298FCF795FA3031029007F8011DB8F1EC
:104000000001A8F10108F2DC02980028EFD1791E26
:104010000E980870307800F0200040F0450007F856
:10402000020D12A8C01B00F107081498007800B117
:10403000012000EB0A01019801EBE0710598414471
:10404000401A401E0590E00306D45B462146179AAD
:10405000059800F05DF805441498007818B15A46A8
:10406000179990476D1CE00324D55B462146179AAB
:10407000059800F04DF805441CE00498002807DB83
:10408000DDE90301884203DD0098405C179901E0F7
:10409000179930205A469047049805F10105401CB5
:1040A00004900198401E019004D12E205A46179981
:1040B00090476D1CBAF10001AAF1010ADDDC05E0B0
:1040C00017F8010B5A46179990476D1CB8F100017B
:1040D000A8F10108F4DC5B462146179A0598ABE687
:1040E0002D0000002B000000200000002DE9F04111
:1040F000044600251E461746880404D405E03946C8
:104100002020B0476D1C641EF9D52846BDE8F0811B
:104110002DE9F041044600251E469046C80301D50E
:10412000302700E02027880404D505E041463846C2
:10413000B0476D1C641EF9D52846BDE8F0810A68B9
:10414000531C0B60107070472DE9FE4F06460F465A
:104150000025684600F0D0FD002442E056F8240017
:1041600057F82410A0EB010ABAF1000F01DB514609
:1041700001E0CAF100010846FCF782F983464FF0DE
:104180008F41FCF7CDF880465DF824000021FCF754
:10419000B3F916D05DF824104046FCF7C1F882460A
:1041A0004FF07E51FCF784F8814629F0004A0F4811
:1041B000416A5046FCF7AAF912D20120A0400543FB
:1041C0000EE00A48C1694046FCF796F905D3074856
:1041D000016A4046FCF79AF902D20120A04005434B
:1041E000641C032CBADB2846BDE8FE8F3C66000841
:1041F00038B5044664B120208DF8000028208DF8E1
:10420000010030208DF8020038208DF8030004E012
:10421000A32204216846FBF7C6FF6A46042140F644
:104220009E2002F093F801F07DFC38BD3EB50446B7
:1042300002208DF80000CA208DF80100E3208DF8DF
:10424000020009208DF803006A460421682002F06C
:104250007DF8A3208DF8000004F0400048B1C02094
:104260008DF80100C8208DF80200C2208DF80300EF
:1042700006E0A3208DF801008DF802008DF8030000
:1042800004F4C07048B1C4208DF80400CC208DF82F
:104290000500C6208DF8060006E0A3208DF8040076
:1042A0008DF805008DF80600A3208DF807008DF825
:1042B00008008DF809006A460A2140F6A72002F09E
:1042C00045F804F0030018B120208DF8000002E04A
:1042D000D8208DF800006A46012140F6B62002F091
:1042E00035F804F0200018B1012000F0ADF802E02C
:1042F000002000F0A9F804F4C07008B304F4807042
:1043000060B1B2208DF800008B208DF80100B6203E
:104310008DF802009B208DF803000BE0B0208DF893
:10432000000080208DF80100B4208DF8020090205C
:104330008DF803006A46042140F6A22002F006F838
:1043400004F0010020B3F8208DF800006A46012136
:104350004FF40B6001F0FAFFFA21072000F046FB52
:10436000072000F00DFB012000F02DFB642000F081
:104370000DFC4FF4FA7000F01CFCC821304800F02E
:10438000BDFA282000F0D6FA0A2000F0E6FA08E08C
:10439000D8208DF800006A4601214FF40B6001F02F
:1043A000D5FF04F0020018B1D9208DF8000002E01A
:1043B000D8208DF800006A46012140F23D7001F0DE
:1043C000C5FF04F0040018B1012000F069F802E014
:1043D000002000F065F804F0100018B10120FFF78C
:1043E00007FF02E00020FFF703FF44F00800154933
:1043F000488101F097FB00201249887304F04000C7
:1044000018B10846807B801D887304F4C07020B109
:104410000C48807B801D0B49887304F0140020B188
:104420000848807B10300749887304F0030020B1EE
:104430000448807B001D0349887300203EBD0000B6
:1044400009E3CA026C0200203EB504466CB10EA11D
:10445000D1E900208968CDE9002002916A4609214E
:104460004FF4976001F072FF3EBD0AA2D2E900103E
:104470009268CDE9010200916A4609214FF49760E4
:1044800001F064FFF0E70000B8AAB38DB4980D35D1
:104490005D000000B8AAAAAAB088C3C5C700000082
:1044A00038B5044664B1C0208DF80000C2208DF8F4
:1044B0000100C4208DF80200C6208DF8030004E03E
:1044C0008B2204216846FBF76EFE6A46042140F603
:1044D000982001F03BFF01F025FB38BD10B5C82343
:1044E0004FF48062024940F6F63001F00FFA10BD39
:1044F0006466000870B588B0064601A801F05AF855
:10450000BDF804000021C90341EA5045C4034448F2
:10451000007A00F0030056F8200005904048007A29
:1045200000F0040010B10598404205903C48007A24
:10453000C0F3C10056F8200006903948007A00F018
:10454000200010B10698404206903548007AC0F32A
:10455000811056F8200007903148008900F48070DF
:1045600010B10798404207900598C117A0FB04239B
:1045700001FB043100FB0510810041EA92700590B7
:104580000698C117A0FB042301FB043100FB0510B2
:10459000810041EA927006900798C117A0FB04239E
:1045A00001FB043100FB0510810041EA9270079085
:1045B0000598000E8DF808000598000C8DF809008C
:1045C0000598000A8DF80A000598C0B28DF80B0016
:1045D0000698000E8DF80C000698000C8DF80D0062
:1045E0000698000A8DF80E000698C0B28DF80F00EC
:1045F0000798000E8DF810000798000C8DF8110038
:104600000798000A8DF812000798C0B28DF81300C1
:1046100002AA0C214FF4257001F098FE08B070BD7D
:104620006C02002030B585B0044616A207CA02AB62
:1046300007C3C82C03DD4FF0FF3005B030BDC820E4
:1046400090FBF4F0401E85B2280A8DF80000E8B215
:104650008DF801006A46022140F2162001F076FE34
:1046600010B14FF0FF30E8E702AA0C2140F6C1205C
:1046700001F06CFE10B14FF0FF30DEE7044884819A
:104680000020DAE7FEF2ABC4AAF1DFDFBBAFDFDF69
:104690006C0200201FB504464848007A00F0030071
:1046A00054F8200001904548007A00F0040010B151
:1046B0000198404201904148007AC0F3C10054F88B
:1046C000200002903D48007A00F0200010B10298CE
:1046D000404202903948007AC0F3811054F820001B
:1046E00003903648008900F4807010B1039840426E
:1046F00003903349019880FB0101800F40EA81005B
:1047000001902F49029880FB0110820042EA9170CB
:1047100002902B49039880FB0110820042EA9170BD
:1047200003900198000E8DF800000198000C8DF8A0
:1047300001000198000A8DF802000198C0B28DF8BE
:1047400003006A4604214FF4747001F0FFFD18B1B4
:104750004FF0FF3004B010BD0298000E8DF800003D
:104760000298000C8DF801000298000A8DF80200F2
:104770000298C0B28DF803006A4604214FF47570A8
:1047800001F0E4FD10B14FF0FF30E3E70398000EB5
:104790008DF800000398000C8DF801000398000AC2
:1047A0008DF802000398C0B28DF803006A46042118
:1047B0004FF4767001F0CAFDCCE700006C020020D7
:1047C00009E3CA0210B586B0044647A0006803900A
:1047D00046A00068029046A00068019045A00068CD
:1047E000009004F0030003A9085C8DF8140003A8EE
:1047F000C4F3C101405C8DF8150003A8C4F3811116
:10480000405C8DF8160004F0030002A9085C8DF8E6
:10481000100002A8C4F3C101405C8DF8110002A889
:10482000C4F38111405C8DF8120005AA032140F207
:10483000264001F08BFD18B14FF0FF3006B010BDDF
:1048400004AA032140F22A4001F080FD10B14FF08C
:10485000FF30F3E7019805900098049004F00400FD
:1048600058B19DF8140040F001008DF814009DF837
:10487000100040F001008DF8100004F0200058B145
:104880009DF8150040F001008DF815009DF811000D
:1048900040F001008DF8110004F4807058B19DF8CB
:1048A000160040F001008DF816009DF8120040F04F
:1048B00001008DF8120005AA03214FF4886001F071
:1048C00045FD10B14FF0FF30B8E704AA032140F2D4
:1048D000314001F03BFD10B14FF0FF30AEE706482C
:1048E00004810020AAE700004CCD6C000CC92C000C
:1048F00036567600264666006C020020F8B505465E
:104900000E464FF47A7095FBF0F000FB06F4200E93
:104910008DF80000200C8DF80100200A8DF80200AF
:10492000E0B28DF803006A4604214FF4AE7001F046
:104930000DFDF8BD38B50446052094FBF0F084B2B7
:1049400020128DF80000E0B28DF801006A460221C5
:104950004FF4AD7001F0FAFC38BD38B504460520BF
:1049600094FBF0F084B220128DF80000E0B28DF8D4
:1049700001006A4602214FF4AC7001F0E7FC38BD3B
:1049800038B504460020009004F0010020B19DF8E5
:10499000000040F03000009004F0020020B19DF8CB
:1049A000000040F00C00009004F0040020B19DF8DD
:1049B000000040F0030000906A4601214FF4A4700B
:1049C00001F0C4FC38BD38B50446012C01DA0124DD
:1049D00002E0042C00DD0424601EC0B200906A4690
:1049E000012140F24F1001F0B1FC38BD2DE9FC4728
:1049F00006460F4606F0070010B1B7F5C86F03DD95
:104A00004FF0FF30BDE8FC873846FBF742FD81469A
:104A10005949FBF785FC8046684600F0A5FD9DF8E6
:104A20000000022806D0042816D0082826D0102816
:104A300048D135E04FF08D414046FBF73FFC8146C1
:104A4000FBF745FD84B24D494046FBF737FC8146F4
:104A5000FBF73DFD85B238E04FF08C414046FBF757
:104A60002DFC8146FBF733FD84B245494046FBF7F8
:104A700025FC8146FBF72BFD85B226E04FF08B41EC
:104A80004046FBF71BFC8146FBF721FD84B23D4904
:104A90004046FBF713FC8146FBF719FD85B214E095
:104AA0004FF08A414046FBF709FC8146FBF70FFDBA
:104AB00084B235494046FBF701FC8146FBF707FD10
:104AC00085B202E04FF0FF309CE700BF20128DF866
:104AD0000400E0B28DF8050028128DF80600E8B257
:104AE0008DF8070006F00100A0B101AA02214FF4E1
:104AF000EA7001F02BFC10B14FF0FF3082E70DF1AE
:104B0000060202214FF4927001F020FC10B14FF028
:104B1000FF3077E706F00200A0B101AA02214FF4AE
:104B2000EC7001F013FC10B14FF0FF306AE70DF1AB
:104B3000060202214FF4947001F008FC10B14FF00E
:104B4000FF305FE706F00400A0B101AA02214FF494
:104B5000EE7001F0FBFB10B14FF0FF3052E70DF1AA
:104B6000060202214FF4967001F0F0FB10B14FF0F5
:104B7000FF3047E7002045E700004843000040467B
:104B80000000C045000040450000C04438B5044660
:104B9000052094FBF0F085B228128DF80000E8B2F1
:104BA0008DF801006A4602214FF4EF7001F0CEFB50
:104BB00038BD38B50446052094FBF0F085B22812C4
:104BC0008DF80000E8B28DF801006A4602214FF42A
:104BD000ED7001F0BBFB38BD2DE9F04132213148C9
:104BE000FBF7E8FA3048008848B300202E490880D7
:104BF0002E48B0F900003230FBF742FC07462C4942
:104C0000FBF78EFB06462B49FBF758FB0546FBF7E7
:104C100045FC0446224628A12248FEF7F3FD012068
:104C2000214908801F48FBF7D0FA84B240F6FF7391
:104C300022461C492348FDF7CBFE01F055FC3221EA
:104C40001848FBF7B7FA2048008848B300201E49EF
:104C500008801E48B0F900003230FBF711FC07460F
:104C60001349FBF75DFB06461249FBF727FB054698
:104C7000FBF714FC0446224615A10A48FEF7C2FDC4
:104C80000120114908800748FBF79FFA84B240F6DB
:104C9000FF73224603490B48FDF79AFE01F024FCFE
:104CA000BDE8F081B4000020440000204600002050
:104CB000000096430000484361646420312C302C8E
:104CC00025640000AC0100204000002042000020CC
:104CD00061646420312C312C2564000013B50C462E
:104CE0004FF6FF73012269460248FDF771FE0098F6
:104CF0001CBD0000AC0100207CB505462849496870
:104D0000087801AB04220D21FEF750F908B1072005
:104D10007CBD9DF80700C0F301109DF8041001F060
:104D2000E00140EAE1008DF800009DF80700C0F3C3
:104D300081009DF8051001F0E00140EAE1008DF8E6
:104D400001009DF8070000F003009DF8061001F037
:104D5000E00140EAE1008DF8020000241CE01DF8AB
:104D6000040018B9002045F8240013E00D4845F868
:104D7000240006E055F824000B49FBF79FFA45F89C
:104D800024001DF80400401EC0B20DF804000028E5
:104D9000F0D100BF601CC4B2032CE0DB0020B7E7F9
:104DA000740000207B14AE3E1D5A843F2DE9F04F65
:104DB00087B005460C46914601208DF81000002072
:104DC0008DF81100FE4A1268917CFD4A52681078F5
:104DD00004AB0222FEF7FEF820B14FF0FF3007B01F
:104DE000BDE8F08FC820FBF7CDFF00208DF8100044
:104DF000F34A1268D17BF24A5268107804AB012260
:104E0000FEF7E8F810B14FF0FF30E8E7EC4A12681F
:104E10005179EB4A5268107804AB0122FEF7DAF8B8
:104E200010B14FF0FF30DAE7E54A1268917CE44AAE
:104E30005268107804AB0122FEF7CCF810B14FF0A5
:104E4000FF30CCE7DE4A1268D17DDD4A5268107827
:104E500004AB0122FEF7BEF810B14FF0FF30BEE701
:104E6000D74A12681179D64A5268107804AB0122E9
:104E7000FEF7B0F810B14FF0FF30B0E70C208DF81E
:104E80001000CF4A12681179CD4A5268107804ABED
:104E90000122FEF79FF810B14FF0FF309FE70F207F
:104EA000FBF770FFC648806A407A8DF81000C44A4C
:104EB00012689178C24A5268107804AB0122FEF75A
:104EC00089F810B14FF0FF3089E7BD48806A007A59
:104ED0008DF81000BA4A12685178B94A52681078B1
:104EE00004AB0122FEF776F810B14FF0FF3076E701
:104EF000B9F1000F07D0B248806A807A40F0E00034
:104F00008DF8100004E0AE48806A807A8DF81000B9
:104F1000AB4A12689179AA4A5268107804AB012210
:104F2000FEF758F810B14FF0FF3058E7B9F1000F15
:104F300007D0A348806AC07A40F0E0008DF81000E6
:104F400003E0A048C07A8DF810009D4A1268D1791C
:104F50009B4A5268107804AB0122FEF73BF810B16F
:104F60004FF0FF303BE7B9F1000F02D0C820FBF74C
:104F700009FF40208DF81000914A12681179904A7B
:104F80005268107804AB0122FEF724F810B14FF0FC
:104F9000FF3024E778208DF81000894A1268517993
:104FA000874A5268107804AB0122FEF713F810B15B
:104FB0004FF0FF3013E783498889FBF7E3FE0020B9
:104FC0008DF810007E4A126851797D4A5268107837
:104FD00004AB0122FDF7FEFF10B14FF0FF30FEE6FB
:104FE000774A1268917A764A5268107804AB0222A6
:104FF000FDF7DCFF10B14FF0FF30F0E69DF8110037
:105000009DF8101040EA012B0C209BFBF0F0C6B27B
:105010000020A86068602860A06060602060824610
:1050200065E0674A1268D17A654A5268107804AB25
:105030000C22FDF7BBFF10B14FF0FF30CFE69DF81B
:1050400011009DF8101040EA012000B2ADF80800F0
:105050009DF813009DF8121040EA012000B2ADF84F
:105060000A009DF815009DF8141040EA012000B2D6
:10507000ADF80C00BDF90810206808442060BDF9A7
:105080000A10606808446060BDF90C10A06808440C
:10509000A0609DF817009DF8161040EA012000B2AC
:1050A000ADF800009DF819009DF8181040EA0120A5
:1050B00000B2ADF802009DF81B009DF81A1040EAFE
:1050C000012000B2ADF80400BDF9001028680844C2
:1050D0002860BDF90210686808446860BDF90410D2
:1050E000A8680844A8600AF1010000F0FF0AB24570
:1050F00097DB3448D0F800C02868C117090441EA9A
:1051000010410704624600233846FBF70BF832468D
:105110000023CDE90201FBF705F828602948D0F803
:1051200000C06868C117090441EA104107046246DB
:1051300000233846FAF7F6FF32460023CDE9020194
:10514000FAF7F0FF68601F48D0F800C0A868C117E0
:10515000090441EA10410704624600233846FAF781
:10516000E1FF32460023CDE90201FAF7DBFFA86038
:105170001448D0F804C02168C817000440EA114858
:105180000F046246002338464146FAF7CBFF324609
:105190000023CDE90201FAF7C5FF20600948D0F8E5
:1051A00004C06068C117090441EA1041070462465F
:1051B00000233846FAF7B6FF3246002304E0000029
:1051C000740000203C660008CDE90201FAF7AAFF4E
:1051D00060601148D0F804C0A068C117090441EA12
:1051E00010410704624600233846FAF79BFF324617
:1051F0000023CDE90201FAF795FFA060A06800281E
:1052000004DDA068A0F58030A06003E0A06800F590
:105210008030A0600020E2E53C6600082DE9FC5FDC
:1052200006460F4600253D494968087801AB032230
:105230000D21FDF7BBFE10B10720BDE8FC9F9DF8D6
:10524000040000F01F008DF804009DF8050000F038
:105250001F008DF805009DF8060000F01F008DF876
:105260000600002456E056F8240057F82410A0EB5E
:10527000010BBBF1000F01DB594601E0CBF100014E
:105280000846FBF7FDF84FF08F410090FBF748F818
:10529000814601A8005D68B321490868FBF7F9F869
:1052A000834659461F48FBF73BF8804604E01E49F9
:1052B0004046FBF703F8804601A8005D401EC0B2DF
:1052C00001A908550028F2D141464846FBF728F8C5
:1052D00083464FF07E51FAF7EBFF82462AF0004BEF
:1052E0000F4881695846FBF711F912D20120A040FE
:1052F00005430EE00A4801694846FBF7FDF805D36F
:10530000074841694846FBF701F902D20120A04055
:105310000543641C032CA6DB28468EE7740000209E
:105320003C66000800B04C4554E3853F10B5044688
:10533000204600F00FF80346E01C00F00BF843EAAB
:10534000C00083B2A01D00F005F843EA801083B2CC
:10535000184610BD014691F90020002A01DD002009
:105360001EE091F90020002A01DA042018E091F9EA
:105370000120002A01DD012012E091F90120002A1C
:1053800001DA05200CE091F90220002A01DD02205B
:1053900006E091F90220002A01DA062000E0072049
:1053A00070470000FCF730FAFDF7CBFFFDF726FE53
:1053B000FDF792FEFDF7E6FEFDF700FFFDF71AFF91
:1053C000FDF7A8FE00F084F80D48FCF7FFFE01226F
:1053D0000C490D48FDF734FA01220C490C48FDF741
:1053E0002FFA4FF4FA60FBF7CDFC08E001F08AF8E1
:1053F000FFF7F2FB0520FBF7C5FCFDF719FFF5E70A
:105400005001002098010020AC010020A2010020E2
:10541000EC01002070B506460D4614461F2E01DC37
:10542000002C00DC70BD55200B4948700870082026
:1054300088700320C870012008714C712012887197
:105440000846C6710D72281248720F230A220348BB
:10545000FDF7BEFA00BFE5E77C0200202C02002029
:1054600070B50446002624F00104184890F8240082
:1054700008B1002070BD1548807A10B94FF0FF3098
:10548000F8E71248057C807A2040104908740846E5
:10549000007CA04202D04FF0FF3600E0002614B995
:1054A0000A48007D18B1012001F060F802E00020F8
:1054B00001F05CF83CB100F035FB20B10348057405
:1054C0004FF0FF30D6E73046D4E7000074000020EC
:1054D00070B5002400F022F9002840D1782000F0B7
:1054E000CDFEC4B20CB1012070BD7820FFF7B8FF2B
:1054F000C4B20CB10220F7E71E2000F071FEC4B266
:105500000CB10320F0E7FEF7E9FFC4B20CB10420B0
:10551000EAE71448FFF70AFF0546FFF753F9C4B25C
:105520000CB10520E0E740F27310FEF77FFEC4B235
:105530000CB10620D8E71E20FFF774F8C4B20CB1F6
:105540000720D1E700F086FF04460CB10820CBE726
:10555000012000F041FDC4B20CB10920C4E70020D5
:10556000C2E70000A000002001461148407A30B197
:10557000012807D0022808D003280CD108E0022017
:1055800008700BE00420087008E00820087005E0AF
:105590001020087002E04FF0FF30704700BF044851
:1055A000C07C18B108784006000E08700020F4E7AF
:1055B0007400002001461348407A30B1012808D019
:1055C00002280AD0032810D10BE04FF48040088055
:1055D0000EE041F69C7008800AE04FF4805008808D
:1055E00006E04FF40060088002E04FF0FF307047A3
:1055F00000BF0448C07C10B108884010088000201B
:10560000F5E700007400002001460248007C0870A5
:10561000002070477400002001460F48007A30B126
:10562000012807D0022809D003280FD10AE0FA2068
:1056300008800EE04FF4FA7008800AE04FF47A70A8
:10564000088006E04FF4FA60088002E0002008803D
:1056500000BF00BF002070477400002001460E48C4
:10566000007A30B1012807D0022808D003280CD1D5
:1056700008E00A4808600BE00948086008E00948AB
:10568000086005E00848086002E04FF0FF3070470E
:1056900000BF0020FBE7000074000020000003436F
:1056A00000008342333303423333834101461248BF
:1056B000C07A082817D2DFE800F01704070A0D1097
:1056C0001318BC20088013E06220088010E02A2014
:1056D00008800DE0142008800AE00A20088007E016
:1056E0000520088004E000BF00BF0020088000BF44
:1056F00000BF0020704700007400002001460648EB
:1057000090F8240010B14FF0FF3070470248C08974
:1057100008800020F9E70000740000201CB58020FC
:105720008DF80000654A1268917C644A52681078CE
:105730006B460122FDF74EFC10B14FF0FF301CBD4F
:105740006420FBF71FFB00208DF800005B4A126805
:10575000917C5A4A526810786B460122FDF73AFC58
:1057600010B14FF0FF30EAE7544A1268917D534A76
:10577000526810786B460622FDF718FC10B14FF006
:10578000FF30DCE79DF80500C007400F9DF80310CF
:1057900001F0010140EA41009DF8011001F0010112
:1057A00040EA010494B1012C03D101214348C174A2
:1057B00031E0022C03D100214048C1742BE0214686
:1057C0003FA0FEF70FF84FF0FF30B8E73B4A1268F2
:1057D000D1783A4A526810786B460122FDF7E6FB11
:1057E00010B14FF0FF30AAE79DF8000000F00F0461
:1057F0002CB93D48FDF7F6FF4FF0FF309FE7042C32
:1058000006D13AA0FDF7EEFF01212C48C17402E059
:1058100000212A48C174FF2128488172FF202749AE
:105820000872FF2125484172C1724FF6FF71C18194
:10583000FF21017481740121017380F8221000217D
:1058400080F8231041750175163001604160816058
:10585000163880F8241080F82510C1844FF4FA60BF
:1058600000F002FC10B14FF0FF3068E7022000F0BA
:10587000CBFA10B14FF0FF3061E72A2000F06EFC48
:1058800010B14FF0FF305AE7322000F0A9FC10B100
:105890004FF0FF3053E70020FFF7E2FD10B14FF06B
:1058A000FF304CE7002000F0F1FA10B14FF0FF306C
:1058B00045E7002000F0E2FC002040E774000020F3
:1058C000556E737570706F7274656420736F667453
:1058D000776172652070726F64756374207265768B
:1058E0002025642E0A000000E072000848616C6602
:1058F0002073656E7369746976697479207061725A
:105900007420666F756E642E0A0000002DE9F04366
:1059100085B005460E4690469946294890F82500E0
:1059200020B14FF0FF3005B0BDE8F08316B94FF05D
:10593000FF30F8E7002423E0281B102801DD1020A9
:1059400000E0281B87B232193946204600F0FEFCE1
:1059500010B14FF0FF30E6E701AA3946204600F0CB
:10596000A1F810B14FF0FF30DDE730193A4601A938
:10597000FAF732FC10B16FF00100D4E7E01984B2FD
:10598000AC42D9DB4FEA28208DF8000008F0FF0078
:105990008DF801000A4A1268917E094A526810780F
:1059A0006B460222FDF716FB10B14FF0FF30BAE74D
:1059B0000121034880F82510A0F826900020B2E7C6
:1059C0007400002038B50446282C02DD4FF0FF306B
:1059D00038BDDCB9002000F08BFB00208DF8000002
:1059E00007208DF801002E4A1268917C2C4A5268DB
:1059F00010786B460222FDF7EDFA10B14FF0FF3040
:105A0000E6E70021264801750020E1E7012000F0CB
:105A10006FFB20208DF80000012C06D100208DF8AE
:105A20000100052000F09AFB17E0052C06DC0120A0
:105A30008DF80100052000F091FB0EE0142C06DC2F
:105A400002208DF801000A2000F088FB05E0032009
:105A50008DF80100142000F081FB9DF80100072162
:105A600001EB8010C0B28DF801000D4A1268917CE4
:105A70000B4A526810786B460222FDF7ABFA10B160
:105A80004FF0FF30A4E7082105488172002101731F
:105A9000012101750020FFF7E3FC002098E70000DA
:105AA00074000020F8B504460D46164616B94FF0AE
:105AB000FF30F8BD1A48807A10B94FF0FF30F8E790
:105AC00020128DF80000E0B28DF801009DF8010071
:105AD0002844134949684989884202DD4FF0FF3064
