:020000040800F2
:10000000C806002001010008D9280008E1250008E1
:1000100015280008D30A0008B12D000800000000D0
:100020000000000000000000000000000929000896
:10003000D70A000800000000DD2800080B2900088E
:100040001B0100081B0100081B0100081B01000820
:100050001B0100081B0100081B0100081B01000810
:100060001B0100081B0100081B0100081B01000800
:100070001B0100081B0100081B0100081B010008F0
:100080001B0100081B0100081B0100081B010008E0
:100090001B0100081B0100081B0100081B010008D0
:1000A0001B0100087D2900081B0100081B01000836
:1000B0001B0100081B0100081B0100081B010008B0
:1000C0001B0100081B0100081B0100081B010008A0
:1000D0001B010008792D0008952D00081B01000860
:1000E0001B0100081B0100081B010008DFF80CD0F1
:1000F00000F07CFC00480047FD370008C8060020DF
:100100000648804706480047FEE7FEE7FEE7FEE7B1
:10011000FEE7FEE7FEE7FEE7FEE7FEE779290008D7
:10012000ED000008202A04DB203A21FA02F0002129
:10013000704721FA02F3D040C2F1200291400843F7
:1001400019467047D2B201E000F8012B491EFBD2DC
:1001500070470022F6E710B513460A4604461946D2
:10016000FFF7F0FF204610BD421C10F8011B0029CC
:10017000FBD1801A704770B5064602F04BFE04684A
:1001800005460A220021304600F0C4FA2C6070BDFA
:10019000F0B480EA0102D40F4200B2EB410F02D268
:1001A0000246084611464A0042D0C30DDDB2C1F3F3
:1001B000C752AD1A202D35DAC1F3160141F4000201
:1001C00004B15242C5F1200602FA06F12A41104458
:1001D000B3EBD05F23D0C4B1012DA0EBC35009DC39
:1001E000F0BC4FF0004202EAC352DBB200F500005F
:1001F00000F0D1BA400000F1807000EBC350A0F1D4
:10020000807040EAD170490009E0490841EAC071B4
:10021000A0EBC35000F50000400800EBC350F0BC59
:1002200000F0B0BA6142012202EB4101001BF6E787
:10023000F0BC704781F00041AAE780F00040A7E7DA
:1002400080EA010210B502F00043400022D04A00CB
:100250001FD0010E01EB1261C0F35600C2F356022B
:1002600040F4000042F40002A0FB022000047F39A9
:10027000140400D0401C50EA124001D44000491E32
:10028000C2B20C0604EBD010401C4008802A02D0F9
:1002900003E0002010BD20F00100002900DA00205A
:1002A000184310BD30B480EA010202F0004530F07E
:1002B000004221F0004013D090B1C30DD40DC2F321
:1002C0001601C0F31600E41A41F4000140F40002E4
:1002D0007D34914201D3641C00E04900002C02DA15
:1002E00030BC002070474FF400000023914201D33E
:1002F000891A034340084FEA4101F7D151B19142B5
:1003000002D14FF0004105E002D24FF0010101E0BF
:100310006FF0010103EBC450284430BC00F032BA46
:100320002DE9FE4F804681EA0300C00F0C46009085
:1003300021F0004123F00045B8EB0200A94105D2AD
:100340004046214690461C460B46024623F000409C
:10035000104347D0270DC7F30A00C3F30A51029098
:10036000401A019040286BDAC3F3130040F4801B5D
:100370000098924620B10023D2EB030A63EB0B0BEB
:1003800001985946C0F14002504600F0A2F90646D5
:100390000D4650465946019A00F0AAF910EB0800A4
:1003A0006141002487EA115284EAE7731A4340D07E
:1003B000009A62B3019A012A4FEA075215DC001B2A
:1003C00061EB02014FF0004202EA0752CDE9004220
:1003D000001C41F5801132462B4600F019FA03B09B
:1003E000BDE8F08F40462146F9E7001B61EB0201B2
:1003F000001C41F5801300185B412018A2F500177E
:1004000047EB030140EAD570B6196D4111E06D0864
:100410004FEA360645EAC0754FEA0752001B61EB0A
:100420000201001C41F5801149084FEA3000001913
:10043000514132462B4603B0BDE8F04F00F0D9B928
:100440000098012240000023D0EB020263EBE0732E
:10045000009821464FEAE074B8EB000061EB04011C
:10046000E9E783F000435BE781F0004158E72DE9BD
:10047000FE4F81EA030404F0004421F0004100949F
:100480004FF0000B23F0004350EA01045ED052EA23
:1004900003045BD0C3F30A54C1F30A552C44A4F2FD
:1004A000F3340194A0FB0254C1F3130141F4801111
:1004B000C3F3130343F4801301FB024400FB034E18
:1004C000840A970A44EA815447EA8357A4FB0768E1
:1004D00002958D0A05FB07854FEA932C04FB0C540B
:1004E0002705029D4FEA065847EA1637B5EB08057F
:1004F0006EEB070C870E920E47EA811742EA8312D1
:10050000A7FB0201B6EB0B0164EB00042B0D43EAE1
:100510000C335E1844EB1C50DA465146E7FB0201EF
:10052000C5F313044FEA0B3343EA14534FEA043282
:10053000019C43EA0603A4F10C040294009CCDE95B
:1005400000B400F065F903B0BDE8F08F002001466B
:10055000F9E7C10F80EAE0700844CA07962300213A
:1005600000F019B900F0004220F00040C10DC0F3C6
:10057000160040F400007F2901DA00207047962918
:1005800003DCC1F19601C84001E096398840002A99
:10059000F4D04042704720F00040C10DC0F3160077
:1005A00040F400007F2901DA00207047962903DC1F
:1005B000C1F19601C840704796398840704700F0F5
:1005C000004230F000400AD0C10D01F56071C0F367
:1005D000160042EA0151C20840071143704700204B
:1005E0000146704701F0004330B421F0004150EA69
:1005F000010206D00A0DA2F56072C1F31301002AB0
:1006000002DC30BC00207047440F44EAC104C10042
:10061000E01830BC00EBC25000F0B4B8002801DB99
:10062000C0F10040002901DBC1F100418142704767
:10063000002801DBC0F10040002901DBC1F10041CD
:100640008842704730B50B46014600202022012425
:1006500009E021FA02F59D4205D303FA02F5491B90
:1006600004FA02F52844151EA2F10102F1DC30BDA6
:100670002DE9F05F0546002092469B4688460646D7
:10068000814640241BE02846414647462246FFF764
:1006900049FD53465A46C01A914110D31146184697
:1006A000224600F016F82D1A67EB01084F46224645
:1006B0000120002100F00DF817EB00094E41201E2B
:1006C000A4F10104DFDC484631462A464346BDE832
:1006D000F09F202A04DB203A00FA02F10020704744
:1006E0009140C2F1200320FA03F319439040704770
:1006F000202A06DBCB17203A41FA02F043EAE073E6
:1007000006E041FA02F3D040C2F1200291400843D2
:10071000194670472DE9F04791460F46804604463A
:10072000002614F8015B2DB100F072F90068405DFD
:10073000C007F6D12B2D02D02D2D18D0641E4A46AD
:100740003946204600F068F927B13968A14201D145
:10075000C7F8008071054FF002040BD54042002815
:1007600003DD02F057FB0460A007BDE8F08746F404
:100770008066E4E70028F8DA02F04CFB04606FF0D2
:100780000040F2E70029A8BF7047401C490008BF9D
:1007900020F00100704710B4B0FA80FC00FA0CF0B1
:1007A00050EA010404BF10BC704749B1CCF12004E9
:1007B00021FA04F411FA0CF118BF01212143084376
:1007C000A3EB0C01CB1D4FEA00614FEA102042BFA2
:1007D000002010BC704700EBC35010440029A4BF98
:1007E00010BC7047401C490008BF20F0010010BC3D
:1007F000704710B5141E73F1000408DA401C41F173
:10080000000192185B411A4301D120F0010010BD94
:100810002DE9F04D92469B4611B1B1FA81F202E00A
:10082000B0FA80F220329046FFF753FF04460F469D
:1008300040EA0A0041EA0B0153465A46084313D0E6
:10084000114653EA010019D0C8F140025046FFF7A3
:1008500069FC05460E46504659464246FFF739FFA9
:10086000084305D0012004E020463946BDE8F08D5C
:100870000020054346EAE0762C4337430A98630597
:10088000E40AA0EB08000022FD0A44EA47540A30BB
:1008900002D500200146E9E7010510196941DDE9AB
:1008A000084500196941BDE8F04DA2E72DE9F04D7A
:1008B00081EA030404F0004B21F0004514464FF098
:1008C000000A23F0004150EA050220D054EA010258
:1008D0001DD0C5F30A570246C5F31303C1F3130035
:1008E000C1F30A5640F4801543F48013A7EB0608C1
:1008F000101BD64608F2FD3873EB050002D308F151
:10090000010801E092185B41B8F1000F03DA002002
:100910000146BDE8F08D00204FF480110646844664
:100920000EE0171B73EB050705D3121B63EB0503E2
:1009300006434CEA010C49084FEA300092185B412B
:1009400050EA0107EDD152EA030012D082EA040016
:1009500083EA0501084305D0101BAB4106D20122F2
:10096000002306E000224FF0004302E06FF0010296
:1009700053101AEB06004CEB085110EB0A0041EB48
:100980000B01BDE8F04DFFF734BFC1F30A52C1F3CC
:10099000130140F2FF3341F480119A4202DA002041
:1009A0000146704740F233439A42A2F2334202DCDE
:1009B0005242FFF7B7BBFFF78CBE000030B5041EF4
:1009C00071F1000404DB4FF00044404264EB01018C
:1009D000141E73F1000405DB1C464FF00043524225
:1009E00063EB0403994208BF904230BD064C074DAB
:1009F00006E0E06840F0010394E8070098471034EF
:100A0000AC42F6D3FFF776FBDC3A0008FC3A00086C
:100A100000487047D83A00082DE9F05F8246007818
:100A2000002715468B460AF10104B946302801D04B
:100A30009DB113E014F8010B0127782803D0582842
:100A400001D045B10AE00DB1102D07D100271025C6
:100A500014F8010B02E0082500E00A250026B04644
:100A60000EE005FB080005FB06F1012701EB10462F
:100A70001FFA80F8B6F5803F00D3B94614F8010B91
:100A8000294600F018F80028EBDABBF1000F05D07A
:100A90000FB1641E00E05446CBF80040B9F1000FDE
:100AA00006D002F0B7F902210160C81EBDE8F09F30
:100AB00048EA0640FAE73A2800D2303820F020020F
:100AC000412A01D3A2F13700884201D34FF0FF3011
:100AD000704700BFFEE7704770B53349B1F90010A9
:100AE000324AB2F90020881AFFF733FD3049086016
:100AF0002E48B0F90000FFF72CFD04462D48016890
:100B00002046FFF78BFD02D000202B4908602B49BF
:100B100027480068FFF782FD07D22548016826486C
:100B20000068FFF735FB2449086025492248006822
:100B3000FFF77EFD03D222481F49086008E02149E3
:100B40001D480068FFF76AFD02D21E481A49086076
:100B50001D491E480068FFF773FB04461C491448F2
:100B60000068FFF76DFB05462146FFF711FB1949A9
:100B700008600846016815480068FFF75BFB0446FB
:100B8000154801682046FFF78DFB1449086011489D
:100B900000680E4908600548B0F90000FFF7D9FC6D
:100BA0000449086070BD0000460000204A00002093
:100BB0000C00002034000020100000200000A041A4
:100BC00000007A4400007AC49A99993E18000020E7
:100BD0003333333F14000020240000202000002085
:100BE0002DE9F04F87B0304930480068FFF720FD0D
:100BF0001ED22F4801682F48FFF722FB07462E48D8
:100C000081683846FFF71CFB04462B4801682B48D7
:100C10000068FFF715FB06462146FFF70BFB05466C
:100C2000274801682846FFF708FB2649086034E09A
:100C30001F4801681F48FFF703FB00901E488168AA
:100C40000098FFF7FDFA0190FFF7B9FC4FF033323F
:100C50001D4BCDE90201FFF70AFCCDE9040116485E
:100C6000016816480068FFF7EBFA0390FFF7A7FC4E
:100C70008046DDE90423FFF7F4FB04460D461048E7
:100C80000068FFF79CFC064622462B46FFF7E9FB6F
:100C90008246FFF7A7FC0B4908600A4800680B4929
:100CA000086007B0BDE8F08F0000A0400C000020F5
:100CB000200000200000204100000020140000203F
:100CC000380000201C0000203333D33F40000020B8
:100CD00072B600BFFEE7000070B50446002594F828
:100CE0002100022803D00420A063012548E02068E9
:100CF000006820F00E00216808602068006820F07D
:100D00000100216808601F492068884201D1012044
:100D100026E01C4914312068884201D110201FE0D0
:100D2000184928312068884201D1801518E01549FA
:100D30003C312068884201D1801411E011495031C2
:100D40002068884202D14FF4803009E00D496431B7
:100D50002068884202D14FF4801001E04FF080708B
:100D6000084908394860012084F8210000BF0020AC
:100D700084F8200000BF606B10B12046616B88478B
:100D8000284670BD0800024070B5044600F0A6F980
:100D900006462546681C10B104480078054400BF8B
:100DA00000F09CF9801BA842FAD370BD70000020AF
:100DB0002DE9F8470346002294466EE14FF0010802
:100DC00008FA02F4D1F8008008EA0400A0427DD1BC
:100DD000DFF8DCA2D1F80480A8EB0A09D0453AD0AC
:100DE00014DCB8F1030F50D009DCB8F1000F31D09A
:100DF000B8F1010F1CD0B8F1020F49D120E0B8F1D1
:100E0000110F18D0B8F1120F42D11EE0B9F5881FAA
:100E100025D006DCB9F5803F20D0B9F5801F37D149
:100E20001AE0B9F5001F18D0B9F5041F30D117E04A
:100E3000D1F80CC02DE0D1F80C8008F1040C28E0AA
:100E4000D1F80C8008F1080C23E0D1F80C8008F1EF
:100E50000C0C1EE000BF00BF00BF00BF00BF00BF02
:100E6000D1F80880B8F1000F02D14FF0040C0BE06C
:100E7000D1F80880B8F1010F03D14FF0080C1C61C4
:100E800002E04FF0080C5C6103E04FF0000C00E062
:100E900000BF00BFFF2801D8984601E003F1040815
:100EA0004646FF2802D84FEA820803E0A2F108086C
:100EB0004FEA88084746D6F800804FF00F0909FA34
:100EC00007F928EA09080CFA07F900E088E048EA7F
:100ED0000908C6F80080D1F8048008F08058B8F1FD
:100EE000805F7DD100BFDFF8CC81D8F8188048F052
:100EF0000108DFF8C091C9F81880C846D8F81880F2
:100F000008F00108CDF8008000BF00BF4FEAB938F3
:100F10004FEA920958F829504FEA82784FEA187937
:100F20004FF00F0808FA09F825EA0805DFF888816C
:100F3000434502D14FF0000816E0DFF880814345B9
:100F400002D14FF001080FE0DFF87481434502D170
:100F50004FF0020808E0DFF86C81434502D14FF002
:100F6000030801E04FF004084FEA82794FEA19794B
:100F700008FA09F848EA0505DFF84C814FEA9209BA
:100F800048F82950D1F8048008F48038B8F5803F3B
:100F90000AD1DFF83881D8F8008048EA0008DFF885
:100FA0002C91C9F8008009E0DFF82081D8F8008092
:100FB00028EA0008DFF81491C9F80080D1F804800D
:100FC00008F40038B8F5003F10D1DFF8008108F1CF
:100FD0000408D8F8008048EA0008DFF8F09000E044
:100FE0005AE009F10409C9F800800DE0DFF8DC805F
:100FF00008F10408D8F8008028EA0008DFF8CC904F
:1010000009F10409C9F80080D1F8048008F48018B7
:10101000B8F5801F0ED1DFF8B48008F10808D8F8C1
:10102000008048EA0008DFF8A49009F10809C9F82F
:1010300000800DE0DFF8948008F10808D8F80080FF
:1010400028EA0008DFF8849009F10809C9F800804F
:10105000D1F8048008F40018B8F5001F0ED1DFF8AD
:101060006C8008F10C08D8F8008048EA0008DFF826
:101070005C9009F10C09C9F800800DE0DFF84C80A4
:1010800008F10C08D8F8008028EA0008DFF83C9046
:1010900009F10C09C9F80080521CD1F8008028FA27
:1010A00002F8B8F1000F7FF489AEBDE8F8870000C0
:1010B000000011100010024000080140000C014027
:1010C00000100140001401400800014000040140EC
:1010D0000AB1016101E00B04036170470148006837
:1010E000704700006800002070B504460CB901206C
:1010F00070BD94F83D0028B9002084F83C002046DB
:1011000000F0DAF8242084F83D002068006820F020
:101110000100216808602068006840F400402168F0
:1011200008602068006820F400402168086000F032
:101130009BFA05465C496068884206D85B48854250
:1011400001D2012007E0002005E05948854201D284
:10115000012000E00020012800D1C9E75548B5FB77
:10116000F0F62068406820F03F0030432168486076
:101170004D496068884201D8701C07E04FF49670B2
:1011800070434FF47A71B0FBF1F0401C2168096A9A
:1011900021F03F01084321680862434960688842A2
:1011A00014D8681E61684900B0FBF1F0401CC0F320
:1011B0000B00042801D204203DE0681E616849004C
:1011C000B0FBF1F0401CC0F30B0034E0A06838B96C
:1011D000681E616801EB4101B0FBF1F0401C0AE0C0
:1011E000681E616801EBC10202EB0111B0FBF1F076
:1011F000401C40F48040C0F30B0008B901201AE005
:10120000A06848B9681E616801EB4101B0FBF1F0CC
:10121000401CC0F30B000CE0681E616801EBC102CA
:1012200002EB0111B0FBF1F0401CC0F30B0040F4E5
:10123000804040F400402168C9694CF6FF72914338
:1012400008432168C861D4E9070108432168096897
:1012500021F0C001084321680860D4E90310084365
:101260002168896848F2FF32914308432168886009
:10127000D4E9050108432168C96821F0FF0108434A
:101280002168C8602068006840F00100216808609B
:1012900000202064202084F83D000020206384F892
:1012A0003E0000BF24E70000A086010080841E00ED
:1012B00000093D0040420F0010B586B004460020F2
:1012C000029003900490059015492068884225D12A
:1012D00000BF1448806940F0080012498861084640
:1012E000806900F00800019000BF00BFC02002909C
:1012F000122003900320059002A90B48FFF758FD28
:1013000000BF0848C06940F400100649C86108469B
:10131000C06900F40010019000BF00BF06B010BD0E
:101320000054004000100240000C014003480068D7
:1013300003490978084401490860704768000020A3
:101340007000002010B50848006840F01000064901
:101350000860032000F0A8F8002000F007F800F073
:101360002BF8002010BD00000020024070B504469C
:101370000E4800784FF47A71B1FBF0F00C4909681F
:10138000B1FBF0F5284600F00BFC08B1012070BD60
:10139000102C07D200222146501E00F047F80548C5
:1013A000046001E00120F2E70020F0E77000002077
:1013B000740000206C00002008B500BF114880694F
:1013C00040F001000F4988610846806900F0010083
:1013D000009000BF00BF00BF0846C06940F08050C9
:1013E000C8610846C06900F08050009000BF00BF8F
:1013F00000BF0549486820F0E06040F00070486098
:1014000000BF08BD00100240000001400146084630
:10141000002809DB00F01F0301229A4043099B00CA
:1014200003F1E023C3F8002100BF70472DE9F05F0E
:1014300080460D461646002701F0D0FC0746394687
:101440002A46334601F00700C0F1070ABAF1040F3B
:1014500002D94FF0040A01E0C0F1070AD14600F1B9
:10146000040ABAF1070F02D24FF0000A01E0A0F11E
:10147000030AD4464FF0010A0AFA09FAAAF1010A4E
:101480000AEA020A0AFA0CFA4FF0010B0BFA0CFBFB
:10149000ABF1010B0BEA030B4AEA0B042146404671
:1014A00001F0A4FCBDE8F09F00BF00F00702064B6E
:1014B00019684FF6FF031940044B0B4343EA02211E
:1014C000014B196000BF70470CED00E00000FA0509
:1014D00070B504460D460CB9012070BD5A4800682D
:1014E00000F00700A8420ED25748006820F007001D
:1014F0002843554908600846006800F00700A842E4
:1015000001D00120E9E7207800F0020002281DD177
:10151000207800F00400042805D14C48406840F4CD
:10152000E0604A494860207800F00800082805D1AA
:101530004648406840F46050444948604348406829
:1015400020F0F000A168084340494860207800F08E
:10155000010078B36068012806D13C48006800F4B7
:10156000003090B90120B8E76068022806D13748FA
:10157000006800F0007040B90120AEE73348006811
:1015800000F0020008B90120A7E73048406820F0C9
:101590000300616808432D494860FFF79FFD064638
:1015A00009E0FFF79BFD801B41F28831884202D998
:1015B000032092E707E02548406800F00C006168CE
:1015C000B0EB810FEDD12048006800F00700A84281
:1015D0000ED91D48006820F0070028431A4908600A
:1015E0000846006800F00700A84201D0012074E717
:1015F000207800F00400042807D11448406820F443
:10160000E060E168084311494860207800F0080074
:10161000082808D10D48406820F46050216940EA4C
:10162000C1000A49486000F03FF808494968C1F321
:101630000311074A515CC840064908600648006823
:10164000FFF794FE002048E700200240001002400F
:101650003C3A0008740000206C000020014800683B
:10166000704700007400002000B5FFF7F7FF044941
:101670004968C1F30221034A515CC84000BD000023
:10168000001002404C3A000800B5FFF7E7FF04499C
:101690004968C1F3C221034A515CC84000BD000043
:1016A000001002404C3A0008F0B585B00FF26C0C07
:1016B0009CE8E01001A8A0E8E0101CA52D680095AA
:1016C00000210022002300240020194D696801F048
:1016D0000C05F5B1042D02D0082D19D101E01548F3
:1016E00019E001ADC1F38346AC5D01F4803555B11D
:1016F0000F4D6D68C5F340451DF805200D4D654340
:10170000B5FBF2F302E00C4D04FB05F3184602E0D2
:1017100000BF084800BF00BF05B0F0BD02030405CC
:10172000060708090A0B0C0D0E0F1010010200002D
:101730000010024000127A0000093D00F8B504468E
:101740000CB90120F8BD207800F00100002878D005
:10175000F848406800F00C0004280CD0F5484068B8
:1017600000F00C00082811D1F248406800F48030E5
:10177000B0F5803F0AD1EF48006800F4003000283F
:101780005FD0606800285CD10120DBE700BF6068A3
:10179000B0F5803F06D1E748006840F48030E54965
:1017A000086028E0606858B9E248006820F480309A
:1017B000E04908600846006820F4802008601AE0CC
:1017C0006068B0F5A02F0BD1DA48006840F48020A3
:1017D000D84908600846006840F4803008600AE094
:1017E000D448006820F48030D24908600846006878
:1017F00020F48020086000BF606888B1FFF76EFCAD
:10180000054606E0FFF76AFC401B642801D9032067
:1018100098E7C848006800F400300028F2D010E0D3
:10182000FFF75CFC054606E0FFF758FC401B642808
:1018300001D9032086E7BF48006800F40030002883
:10184000F2D1207800F00200022857D1B948406850
:1018500000F00C0050B1B748406800F00C000828B8
:1018600018D1B448406800F4803098B9B148006895
:1018700000F0020020B12069012801D0012061E7B9
:10188000AC48006820F0F800616940EAC100A9494D
:10189000086033E02069E8B10120A7490860FFF73C
:1018A0001DFC054606E0FFF719FC401B022801D984
:1018B000032047E79F48006800F002000028F2D0AC
:1018C0009C48006820F0F800616940EAC10099492D
:1018D000086013E0002098490860FFF7FFFB054609
:1018E00006E0FFF7FBFB401B022801D9032029E794
:1018F0009048006800F002000028F2D1207800F043
:10190000080008282DD1A069B8B101208B490860D2
:10191000FFF7E4FB054606E0FFF7E0FB401B02286B
:1019200001D903200EE78348406A00F00200002836
:10193000F2D0012000F0D4FF13E000207F490860BE
:10194000FFF7CCFB054606E0FFF7C8FB401B02286B
:1019500001D90320F6E67748406A00F0020000282B
:10196000F2D1207800F00400042873D100277148D8
:10197000C06900F0805070B900BF6E48C06940F087
:1019800080506C49C8610846C06900F080500090E2
:1019900000BF00BF01276A48006800F48070B0B93A
:1019A0006748006840F4807065490860FFF796FB5F
:1019B000054606E0FFF792FB401B642801D903208F
:1019C000C0E65F48006800F480700028F2D000BFD5
:1019D000E068012806D15748006A40F001005549E7
:1019E000086227E0E06858B95248006A20F0010018
:1019F000504908620846006A20F00400086219E0B5
:101A0000E06805280BD14B48006A40F004004949C2
:101A100008620846006A40F0010008620AE0454892
:101A2000006A20F00100434908620846006A20F07D
:101A30000400086200BFE068A0B1FFF74FFB054655
:101A400009E0FFF74BFB401B41F28831884202D985
:101A5000032077E622E03748006A00F00200002801
:101A6000EFD012E0FFF73AFB054608E0FFF736FB40
:101A7000401B41F28831884201D9032062E62D489B
:101A8000006A00F002000028F0D1012F05D129489A
:101A9000C06920F080502749C86100BFE069C8B321
:101AA0002448406800F00C00082860D0E069022853
:101AB00048D1002020490866FFF710FB054606E0E4
:101AC000FFF70CFB401B022801D903203AE6194816
:101AD000006800F000700028F2D1206AB0F5803F65
:101AE00007D11448406820F40030A1680843114928
:101AF0004860D4E9080108430E49496821F474118B
:101B000008430C49486001200B490866FFF7E6FAD4
:101B1000054607E03DE0FFF7E1FA401B022801D946
:101B200003200FE60348006800F000700028F2D0A0
:101B30002FE00000001002400000424280044242B8
:101B400000700040002014490866FFF7C7FA0546F8
:101B500006E0FFF7C3FA401B022801D90320F1E594
:101B60000E48006800F000700028F2D111E0E06932
:101B7000012800D1E6E50948466806F48031206A6C
:101B8000814204D106F47011606A814201D00120C3
:101B9000D8E50020D6E500000000424200100240D7
:101BA00070B504462546681EB0F1807F01D3012040
:101BB0000FE0681E4FF0E02148610F214FF0FF3029
:101BC00001F014F900204FF0E0218861072008613E
:101BD000002070BD7047704730B502460B4600BF0D
:101BE00092F83C00012801D1022030BD012082F88A
:101BF0003C0000BF022082F83D0010684468106875
:101C0000816824F070041868044310684460104D23
:101C10001068A8420BD01068B0F1804F07D00D4D6E
:101C20001068A84203D00C4D1068A84205D121F0DD
:101C300080015868014310688160012082F83D00EE
:101C400000BF002082F83C0000BF00BFCDE70000CD
:101C5000002C0140000400400008004010B504467C
:101C60000CB9012010BD94F83D0028B9002084F87B
:101C70003C00204600F026F8022084F83D00211D9B
:101C8000206800F0A5FE012084F8460000BF84F81B
:101C90003E0001213F2001554020015541200155C2
:101CA00000BF00BF012084F84200432001554420BA
:101CB00001554520015500BF012084F83D0000205A
:101CC000D0E7000038B504460D492068884215D198
:101CD00000BF0C48806940F400600A4988610846EA
:101CE000806900F40060009000BF00BF0022012165
:101CF0001920FFF79BFB1920FFF788FB38BD000078
:101D0000002C014000100240014691F83D000128DE
:101D100001D001207047022081F83D000868C068AA
:101D200040F001000B68D860124B086898420BD055
:101D30000868B0F1804F07D00F4B0868984203D075
:101D40000E4B086898420CD10868806800F00702C2
:101D5000062A0CD00868006840F001000B68186083
:101D600005E00868006840F001000B68186000207A
:101D7000D0E70000002C01400004004000080040B3
:101D80002DE9F04104460D4600BF94F83C000128BF
:101D900002D10220BDE8F081012084F83C0000BFA0
:101DA000022084F83D002068866826F0770626F435
:101DB0007F46206886602868502833D00CDC2028B5
:101DC00050D004DC00284BD0102851D149E03028F5
:101DD00049D040284CD139E060282DD0702807D058
:101DE000B0F5805F03D0B0F5005F41D10DE040E079
:101DF000D5E902136A68206800F024FE206886682E
:101E000046F077062068866033E0D5E902136A68F9
:101E1000206800F017FE2068806840F48040216848
:101E2000886026E0EA686968206800F01FFE50219B
:101E3000206800F012FE1CE0EA686968206800F083
:101E400028FE6021206800F008FE12E0EA68696858
:101E5000206800F00BFE4021206800F0FEFD08E045
:101E600000BF00BF00BF2968206800F0F6FD00E059
:101E700000BF00BF012084F83D0000BF002084F8AF
:101E80003C0000BF00BF85E7704710B504462068DE
:101E90000069C0F34000D8B12068C068C0F34000BA
:101EA000B0B16FF00200216808610120207720683E
:101EB000806900F0030018B12046FFF7E5FF05E058
:101EC000204600F0ADF8204600F0ABF80020207767
:101ED00020680069C0F38000D8B12068C068C0F3F2
:101EE0008000B0B16FF00400216808610220207703
:101EF0002068806900F4407018B12046FFF7C4FFE5
:101F000005E0204600F08CF8204600F08AF800201A
:101F1000207720680069C0F3C000D8B12068C0688D
:101F2000C0F3C000B0B16FF0080021680861042060
:101F300020772068C06900F0030018B12046FFF741
:101F4000A3FF05E0204600F06BF8204600F069F89A
:101F50000020207720680069C0F30010D8B1206805
:101F6000C068C0F30010B0B16FF0100021680861C4
:101F7000082020772068C06900F4407018B120461E
:101F8000FFF782FF05E0204600F04AF8204600F007
:101F900048F8002020772068006900F0010058B15F
:101FA0002068C06800F0010030B16FF001002168C6
:101FB0000861204600F036F820680069C0F3C010C0
:101FC00058B12068C068C0F3C01030B16FF0800015
:101FD000216808612046FFF7FDFD20680069C0F315
:101FE000801058B12068C068C0F3801030B16FF025
:101FF000400021680861204600F015F8206800695B
:10200000C0F3401058B12068C068C0F3401030B130
:102010006FF02000216808612046FFF7DCFD10BD4D
:102020007047704770477047704700002DE9F047D0
:102030000446206805682068C668206847694FF034
:102040000008C14605F00F08B8F1000F0AD105F0ED
:10205000200038B106F0200020B1204600F057FDE6
:10206000BDE8F087B8F1000F71D007F0010018B992
:1020700006F4907000286AD005F0010030B106F433
:10208000807018B1E06B40F00100E06305F00400DF
:1020900030B107F0010018B1E06B40F00200E063DE
:1020A00005F0020030B107F0010018B1E06B40F01C
:1020B0000400E06305F0080048B106F0200010B904
:1020C00007F0010018B1E06B40F00800E063E06B3E
:1020D00068B305F0200028B106F0200010B12046BA
:1020E00000F015FD20684069C0F38019E06B00F036
:1020F000080010B9B9F1000F22D0204600F0E7FC2B
:102100002068406900F04000B0B12068406920F0CC
:10211000400021684861606B50B11848616B4863AA
:10212000606BFEF7D9FD10B1606B416B88470CE026
:102130002046FFF779FF08E02046FFF775FF04E02F
:102140002046FFF771FF0020E06389E7FFE705F015
:10215000800030B106F0800018B1204600F0A6FDE6
:102160007EE705F0400030B106F0400018B120468F
:1021700000F0BDFC74E700BF72E70000BB2A000856
:1021800010B504460CB9012010BDA06900B100E0F3
:1021900000BF94F8390028B9002084F838002046A0
:1021A00000F028F8242084F839002068C06820F462
:1021B00000502168C860204600F0FAFC20680069E1
:1021C00020F49040216808612068406920F02A00CE
:1021D000216848612068C06840F400502168C860E8
:1021E0000020E063202084F8390084F83A000020C1
:1021F000CAE7000010B586B00446002002900390A4
:102200000490059057492068884238D100BF56484D
:10221000806940F48040544988610846806900F430
:102220008040019000BF00BF00BF0846806940F0B9
:10223000040088610846806900F00400019000BF36
:1022400000BF48150290022003900320059002A9C8
:102250004648FEF7ADFD4FF48060029000200390E9
:102260000220049002A94148FEF7A2FD00220221AB
:102270002520FFF7DBF82520FFF7C8F86FE03C4981
:102280002068884237D100BF3748C06940F4003029
:102290003549C8610846C06900F40030019000BFAC
:1022A00000BF00BF0846806940F00400886108460E
:1022B000806900F00400019000BF00BF042002907C
:1022C000022003900320059002A92848FEF770FD24
:1022D00008200290002003900220049002A92348C5
:1022E000FEF766FD002203212620FFF79FF8262037
:1022F000FFF78CF833E01F49206888422FD100BFD8
:102300001948C06940F480201749C8610846C0696F
:1023100000F48020019000BF00BF00BF0846806924
:1023200040F0080088610846806900F008000190CC
:1023300000BF00BF08150290022003900320059003
:1023400002A90D48FEF734FD4FF400600290002012
:1023500003900220049002A90748FEF729FD06B069
:1023600010BD00000038014000100240000801408C
:102370000044004000480040000C014010B50346F6
:1023800093F83A0020282FD101B10AB9012010BDDD
:1023900000BF93F83800012801D10220F7E701209F
:1023A00083F8380000BF99629A85DA850020D863E7
:1023B000222083F83A0000BF002083F8380000BFD5
:1023C0001868C06840F480701C68E0601868406954
:1023D00040F001001C6860611868C06840F020008F
:1023E0001C68E0600020D2E70220D0E710B5044668
:1023F0003E49206888423CD13D48008800F4404076
:1024000030BB3C4800780D2806D13948008840F49C
:1024100000403749088068E03548008809280EDA0E
:10242000344800780A280AD03248017830480288B7
:102430000088401C2E4B18802F48815455E0002006
:102440002B4908802C4800210160416001814CE04B
:102450002748008800F4004010B101F051FA44E030
:102460000020234908802448002101604160018147
:102470003BE022492068884237D12148008800F497
:10248000404010BB1F4800780D2806D11C4800882A
:1024900040F400401A49088027E0194800880928BC
:1024A0000ADA18480178164802880088401C144B44
:1024B00018801548815418E00020114908801248FE
:1024C00000210160416001810FE00D48008800F4A7
:1024D000004010B101F0F2F907E00020084908803F
:1024E0000948002101604160018110BD00380140B0
:1024F0006000002060010020AE0000200044004089
:10250000620000206A010020B80000202DE9F84F89
:1025100004460E46174699464FF0000A94F83900D3
:1025200020285AD106B117B90120BDE8F88F00BFA5
:1025300094F83800012801D10220F6E7012084F840
:10254000380000BF0020E063212084F83900FEF746
:10255000C5FD8246A784E784A068B0F5805F04D1FA
:10256000206910B90025B04602E035464FF000085A
:1025700000BF002084F8380000BF1BE05346002253
:1025800080212046CDF8009000F0C0FB08B1032068
:10259000CBE745B9B8F80000C0F3080021684860EF
:1025A00008F1020803E02878216848606D1CE08C7F
:1025B000401EE084E08C0028E0D1534600224021F8
:1025C0002046CDF8009000F0A1FB08B10320ACE755
:1025D000202084F839000020A7E70220A5E77047F3
:1025E00000BFFEE700B585B0002001900290039087
:1025F000049000BF2F48806940F010002D49886189
:102600000846806900F01000009000BF00BF00BFC6
:102610000846806940F0200088610846806900F023
:102620002000009000BF00BF00BF0846806940F056
:10263000040088610846806900F00400009000BF33
:1026400000BF00BF0846806940F008008861084666
:10265000806900F00800009000BF00BF00227021D8
:102660001548FEF735FD002207211448FEF730FD1E
:10267000702001900120029000200390022004901D
:1026800001A90D48FEF794FB8020019003200290E1
:1026900001A90948FEF78CFB072001900120029058
:1026A000002003900220049001A90448FEF780FB5B
:1026B00005B000BD0010024000080140000C0140C0
:1026C00010B50B480B4908600B48486000210948C9
:1026D0008160C1604FF480410161002141618161ED
:1026E000C1610162FEF700FD08B1FEF7F1FA10BD0D
:1026F00000540040C4000020801A060000B587B0D6
:1027000000200390049005900690019002901548D7
:10271000154908604720486000211348816042F253
:102720000F71C1600021016141618161FFF796FA7B
:1027300008B1FEF7CDFA4FF48050039003A90A4880
:10274000FFF71EFB08B1FEF7C3FA002001900290CC
:1027500001A90548FFF740FA08B1FEF7B9FA07B03A
:1027600000BD0000002C01401801002010B50B48EE
:102770000B4908604FF416504860002108488160FA
:10278000C16001610C21416100218161C161FFF7DC
:10279000F7FC08B1FEF79CFA10BD000000380140BC
:1027A0007401002010B50B480B4908604FF49640A7
:1027B0004860002108488160C16001610C214161CD
:1027C00000218161C161FFF7DBFC08B1FEF780FAEF
:1027D00010BD000000440040B401002010B50B48BB
:1027E0000B4908604FF4165048600021084881608A
:1027F000C16001610C21416100218161C161FFF76C
:10280000BFFC08B1FEF764FA10BD000000480040AC
:10281000F401002000BFFEE770B527480068274993
:102820000860274801682748FDF704FD264908602D
:1028300026480068FDF796FE054620480068FDF72B
:1028400091FE2C1A002C01DB204600E06042322869
:102850002CDA1F4919480068FDF7EAFE03D21C482C
:102860001649086008E01B4914480068FDF7D6FEC9
:1028700002D21848114908604FF07E511248006892
:10288000FDF7D6FE03D24FF07E500F4908600E4888
:102890000068FDF780FE84B208480068FDF77BFE03
:1028A00085B222462946012000F0E2FF0348006875
:1028B0000649086070BD00001C00002028000020B0
:1028C00020000020000020412C00002030000020CB
:1028D000008040440080134400BFFEE770470000C2
:1028E00008B508490968C9084FF47A72B1FBF2F1DA
:1028F0004143009100BF00BF00994A1E0092002989
:10290000F9D108BD74000020704710B5FEF70EFD28
:1029100010BD00B58FB0282105A8FDF71AFC1421C1
:102920006846FDF716FC0120059000040690002083
:1029300007900120099002200C90C1030D914FF4E3
:10294000E0110E9105A8FEF7F9FE08B1FEF7C0F9F7
:102950000F20009002200190002002904FF4806030
:1029600003900020049002216846FEF7B1FD08B1F3
:10297000FEF7AEF90FB000BD7047000010B5124869
:102980000068401C104908601048FFF77EFA0E48A6
:102990000068012804D1FEF79FF8FEF721F912E044
:1029A0000948006802280ED00748006803280AD0AA
:1029B00005480068042806D003480068052802D0AE
:1029C00000200149086010BD6400002018010020AB
:1029D00010B50268184B984208D0B0F1804F05D06E
:1029E000164B984202D0164B984203D122F0700247
:1029F0004B681A43104B984208D0B0F1804F05D075
:102A00000E4B984202D00E4B984203D122F44072F2
:102A1000CB681A4322F080034C6943EA0402026047
:102A20008B68C3620B688362034B984201D10B69C8
:102A300003630123436110BD002C014000040040EA
:102A40000008004030B50C46816821F47F4142EA1D
:102A5000032525432943816030BD0A46816821F062
:102A6000700142F0070319438160704730B50B468F
:102A70001446026A056A25F001050562816921F0A4
:102A8000F00141EA041122F00A021A438161026254
:102A900030BD30B50B461446056A25F010050562B9
:102AA0008169026A21F4704141EA043122F0A002F6
:102AB00042EA03128161026230BD70B505466C6A5C
:102AC0000020E085E0842046FFF7AEFA70BD016883
:102AD000C96821F490710268D1600168496921F0E8
:102AE000010102685161202180F83A10704710B549
:102AF00004462068C06820F040002168C86020209B
:102B000084F839002046FFF76AFD002010BD70B53B
:102B1000044694F83A00222847D1A068B0F5805FB7
:102B20000CD1206950B90025A66A20684068C0F31E
:102B300008003080A06A801CA06215E0A56A00260B
:102B4000A068B0F5805F03D0A06828B9206918B9E3
:102B500020684068287004E02068406800F07F002A
:102B60002870A06A401CA062E08D401E80B2E08503
:102B7000C8B92068C06820F020002168C8602068BB
:102B8000C06820F480702168C8602068406920F027
:102B9000010021684861202084F83A002046FFF7B0
:102BA00025FC002070BD0020FCE70220FAE70000B1
:102BB00070B504462168096921F44051E268114367
:102BC000226811612269A1681143626941EA020524
:102BD0002168C96841F20C62914329432268D1609F
:102BE0002168496921F44071A26911432268516149
:102BF0002D4A2168914202D1FEF746FD01E0FEF721
:102C000033FD00EBC00101EB001162689200B1FBE3
:102C1000F2F100EBC00202EB001263689B00B2FB12
:102C2000F3F26423B2FBF3F202EBC20303EB0212F2
:102C3000A1EB8201322202EB01116422B1FBF2F11D
:102C400001F0F00100EBC00202EB001263689B0090
:102C5000B2FBF3F26423B2FBF3F201EB021200EBDE
:102C6000C00101EB001163689B00B1FBF3F100EBC5
:102C7000C00303EB00136668B600B3FBF6F36426EB
:102C8000B3FBF6F303EBC30606EB0313A1EB8301DF
:102C9000322303EB01116423B1FBF3F101F00F01C7
:102CA00011442268916070BD00380140014691F8DE
:102CB0003900212828D18868B0F5805F0BD10869D8
:102CC00048B90A6A1088C0F308000B685860086A9F
:102CD000801C086205E00B6A581C086218780B68B3
:102CE0005860C88C401E80B2C88458B90868C06853
:102CF00020F080000B68D8600868C06840F0400091
:102D00000B68D860002070470220FCE72DE9F041F5
:102D100004460D4617469846069E21E0701CF8B101
:102D20002EB1FEF7DBF9A0EB0800B04218D92068FD
:102D3000C06820F4D0702168C8602068406920F025
:102D4000010021684861202084F8390084F83A00A5
:102D500000BF002084F8380000BF0320BDE8F081E8
:102D6000206800682840A84201D1012000E000202E
:102D7000B842D3D00020F1E710B50448FFF756F968
:102D8000012203490148FFF7F9FA10BD7401002040
:102D90006001002010B50448FFF748F901220349FB
:102DA0000148FFF7EBFA10BDB40100206A010020D2
:102DB00000BFFEE70FB4084B10B504A902AA0398A0
:102DC00000F0FEF8044602A9002000F090FC204626
:102DD00010BC5DF814FB0000EF36000802480068E4
:102DE000C0F30220704700000CED00E010B5002891
:102DF00004DB0A07130E054A135406E00A07140EF3
:102E0000034A00F00F031B1FD45410BD00E400E080
:102E100018ED00E0004870477800002002E008C884
:102E2000121F08C1002AFAD170477047002001E044
:102E300001C1121F002AFBD1704700002DE9FF5F7E
:102E400082B00021DDE90430020DDDF840B003431B
:102E500018D044F61050A2F2FF32424315141198D4
:102E600001281FD0A5EB0B00401C5FEA000A4FF0C1
:102E700000064E4FDFF83891B046504615D5CAF1DE
:102E8000000413E0119801244AA3012801D16FEA3C
:102E90000B010298119AC0E90031C0E9024206B064
:102EA000BDE8F09FCBF10000DFE704460021404A77
:102EB000491842EB0450CDE9001012E0E00707D0BA
:102EC00032463B4640464946FDF7D1FA80468946A0
:102ED00032463B4610461946FDF7C9FA06460F46EC
:102EE0006410002CEAD1DDE90401DDE90023BAF128
:102EF000000F06DAFDF7BBFA42464B46FDF7B7FA7C
:102F000005E0FDF7D3FC42464B46FDF7CFFC0446F7
:102F10000E460022284BFDF751FD03D84FF0FF303D
:102F2000014607E00022254B20463146FDF7F8F91F
:102F3000FDF72BFD102409E0002C0ADB0A220023F8
:102F4000FDF796FB039B30321A55641E50EA0102CE
:102F5000F2D1641C039AC4F111031444119A012A9A
:102F600003D0012208430DD10AE0084304D0002019
:102F70004FF0110B119072E7A3EB0B056D1E0DE0E6
:102F80005B4504DD4FF0000205F1010504E003DAC2
:102F90004FF00002A5F10105002AECD0029811992A
:102FA000C0E90231C0E9004579E7000000001440A3
:102FB0000000F03F300000000000F0430000E03F60
:102FC0002DE9FF4F95B09B468946064600250FE246
:102FD000252877D100242746F84A0121059400E0EE
:102FE000044316F8013F203B01FA03F01042F7D1E9
:102FF00030782A2811D06FF02F033078A0F13002FA
:10300000092A16D8059A44F0020402EB820203EB67
:1030100042021044761C0590EFE759F8042B059204
:10302000002A03DA504244F40054059044F00204AC
:10303000761C30782E2816D116F8010F44F00404BF
:103040002A280DD06FF02F023078A0F13003092B21
:1030500009D807EB870302EB4303C718761CF3E795
:1030600059F8047B761C30786C280FD006DC4C288D
:1030700017D068280DD06A2814D104E0742810D025
:103080007A280FD10DE044F400140AE044F48014CF
:1030900001E044F440147278824202D104F58014B5
:1030A000761C761C307866280BD013DC582877D035
:1030B00009DC002875D04528F6D04628F4D04728EA
:1030C0001AD19DE118E0632835D0642879D06528AD
:1030D00012D195E1702873D008DC6728F1D06928F7
:1030E0006FD06E280DD06F2806D1B5E073282CD094
:1030F000752875D0782874D05A46179990476D1C5A
:1031000075E1C4F30250022809D003280DD0D9F884
:10311000001004280DD00D6009F1040967E1D9F809
:103120000010EA17C1E90052F6E7D9F800100D8047
:10313000F2E70D70F0E719F8041B8DF8001000207D
:103140008DF80100EA46012003E059F804AB4FF086
:10315000FF3061074FF0000102D40DE008F10101DA
:103160008846B9420FDA8045F8DB1AF808100029C2
:10317000F4D108E008F1010188468142FADB1AF82F
:1031800008100029F6D105985B46A0EB08072146F8
:103190003846179A00F094FA284400EB080507E037
:1031A0004DE029E10DE01AF8010B5A4617999047B6
:1031B000B8F10108F7D25B4621463846179A13E169
:1031C00042E00A220092C4F302524FF0000A022A9F
:1031D00008D059F804CB032A4FEAEC710AD00DE06D
:1031E00029E02AE009F1070121F00702F2E802C113
:1031F000914609E00FFA8CFC4FEAEC71042A03D1E6
:103200004FFA8CFC4FEAEC71002907DA0A460021DC
:10321000DCF1000C61EB02012D2202E0220504D555
:103220002B228DF80420012203E0E20701D02022A6
:10323000F7E7904659E00A2102E010220DE0102144
:103240004FF0000A00910BE010224FF0000A44F00A
:1032500004040827009203E008224FF0000A0092BD
:10326000C4F30252022A05D059F804CB0021032AE4
:1032700008D009E009F1070121F00702F2E802C1D4
:10328000914605E01FFA8CFC042A01D10CF0FF0CDA
:103290004FF00008220728D5702806D0009B83F045
:1032A000100353EA0A0305D00EE040228DF80420F3
:1032B000012208E05CEA010206D030228DF80420E9
:1032C0008DF8050002229046009B83F0080353EA24
:1032D0000A030AD15CEA010201D1620705D5302256
:1032E0008DF804204FF001087F1E582804D034A028
:1032F00003900EA802900DE036A0F9E75346604611
:10330000009AFDF7B5F984460398825C0298401E46
:10331000029002705CEA0100F0D1029806A9081A36
:1033200000F1200A600702D524F4803400E0012770
:10333000574502DDA7EB0A0000E0002000EB0A0180
:10334000009005984144401A0590E00306D45B467E
:103350002146179A059800F0B3F90544002706E0C6
:1033600001A85A46C05D179990476D1C7F1C4745C0
:10337000F6DBE0030CD55B462146179A059800F072
:103380009FF9054404E030205A46179990476D1C78
:103390000099481E00900029F5DC08E00298029987
:1033A0005A460078491C0291179990476D1CBAF152
:1033B0000001AAF1010AF1DC65E100000928010021
:1033C000303132333435363738396162636465669B
:1033D000000000003031323334353637383941425D
:1033E000434445460000000000F058F90544761CAF
:1033F000307800287FF4ECAD19B02846BDE8F08F96
:10340000620700D4062709F1070222F0070CFCE846
:103410000223E14603F000485FEA080C02D00FF2F5
:10342000702C0DE05FEA045C02D50FF2682C07E017
:103430005FEAC47C02D00FF2602C01E0AFF2700CA6
:103440004FF0FF3823F00043CDF850C065280CD072
:1034500006DC452809D046281DD047283DD13DE04F
:10346000662818D067287ED138E00021112F01DBB3
:10347000112000E0781CCDE9000106A90EA8FFF795
:10348000DDFCDDE90F010E9A03910021009207F1A6
:10349000010A04914DE04FF000400097CDE9011082
:1034A00006A90EA8FFF7CAFCDDE90F0203920E9BE6
:1034B00011990022DDF80CA00093049211B9791C37
:1034C00000EB010AB7EB0A0004D4C0F1FF3007F1AA
:1034D000010A0490AAEB0700019044E0012F00DAF2
:1034E00001270021112F01DD112000E03846CDE930
:1034F000000106A90EA8FFF7A1FCDDE90F010E9A55
:103500000391002104910092BA4621070CD403993B
:10351000514500DA8A46BAF1010F05DD009AAAF199
:103520000101515C302908D0B84202DA10F1040FD1
:1035300006DA0121CDE9011015E0AAF10101E9E760
:10354000002805DC049901440491AAEB000102E083
:10355000411C514500DD8A460499401A401C0190E7
:103560004FF000400290200704D40198504501DB41
:10357000CDF8048000208DF84F0002980DF14F0720
:10358000B0F1004F25D02B200E9002984FF002088A
:1035900000280CDA404202902D200E9007E00A210C
:1035A0000298FDF74FF83031029007F8011DB8F18D
:1035B0000001A8F10108F2DC02980028EFD1791E81
:1035C0000E980870307800F0200040F0450007F8B1
:1035D000020D12A8C01B00F107081498007800B172
:1035E000012000EB0A01019801EBE07105984144CC
:1035F000401A401E0590E00306D45B462146179A08
:10360000059800F05DF805441498007818B15A4602
:10361000179990476D1CE00324D55B462146179A05
:10362000059800F04DF805441CE00498002807DBDD
:10363000DDE90301884203DD0098405C179901E051
:10364000179930205A469047049805F10105401C0F
:1036500004900198401E019004D12E205A461799DB
:1036600090476D1CBAF10001AAF1010ADDDC05E00A
:1036700017F8010B5A46179990476D1CB8F10001D5
:10368000A8F10108F4DC5B462146179A0598ABE6E1
:103690002D0000002B000000200000002DE9F0416B
:1036A000044600251E461746880404D405E0394622
:1036B0002020B0476D1C641EF9D52846BDE8F08176
:1036C0002DE9F041044600251E469046C80301D569
:1036D000302700E02027880404D505E0414638461D
:1036E000B0476D1C641EF9D52846BDE8F0810A6814
:1036F000531C0B60107070472DE9F04132213148A6
:10370000FCF727FD3048008848B300202E49088088
:103710002E48B0F900003230FCF71BFF07462C4959
:10372000FCF7C0FD06462B49FCF78AFD0546FCF771
:1037300019FF0446224628A12248FFF73BFB01203F
:10374000214908801F48FCF70FFD84B240F6FF7343
:1037500022461C492348FEF7D9FE00F02DF93221FC
:103760001848FCF7F6FC2048008848B300201E49A2
:1037700008801E48B0F900003230FCF7EAFE074628
:103780001349FCF78FFD06461249FCF759FD054623
:10379000FCF7E8FE0446224615A10A48FFF70AFB9B
:1037A0000120114908800748FCF7DEFC84B240F68E
:1037B000FF73224603490B48FEF7A8FE00F0FCF811
:1037C000BDE8F0817C000020480000204A00002075
:1037D000000096430000484361646420312C302C83
:1037E00025640000740100204400002046000020F1
:1037F00061646420312C312C25640000FDF7A2FDAA
:10380000FFF787F8FEF7EEFEFEF75AFFFEF7AEFF72
:10381000FEF7C8FFFEF7E2FFFEF770FF0F48FEF766
:1038200073FA01220E490F48FEF7A8FD01220E4946
:103830000E48FEF7A3FD4FF4FA60FDF7A5FA052444
:103840000AE000F07FF800F0C5F8FFF755FF2046CA
:10385000FDF79AFAFEF7E0FFF3E7000018010020F9
:1038600060010020740100206A010020B4010020E2
:1038700070B506460D4614461F2E01DC002C00DCF8
:1038800070BD55200B4948700870082088700320CF
:10389000C870012008714C71201288710846C671E9
:1038A0000D72281248720F230A220348FEF72EFEDB
:1038B00000BFE5E734020020F401002010B50C48F9
:1038C000008801280BD10020094908800948FCF72D
:1038D00052FC00B2084908800120054908800020F8
:1038E000064908800348002101604160018110BD44
:1038F00044000020B80000204600002062000020A4
:1039000010B50C48008801280BD100200949088017
:103910000948FCF730FC00B208490880012005493D
:1039200008800020064908800348002101604160AA
:10393000018110BD48000020AE0000204A00002098
:103940006000002070B532211248FCF702FC1248DA
:103950000088E8B100201049088010480068FCF792
:103960002EFE044622460B460DA10A48FFF722FA16
:103970000120094908800748FCF7F6FB84B240F6AD
:10398000FF73224603490B48FEF7C0FD00F014F810
:1039900070BD00007C0000203C00002040000020A2
:1039A00074312E7478743D224465673A20252E3197
:1039B000662200007401002010B540F6FF73032258
:1039C00002490348FEF7A2FD10BD00005C00002084
:1039D0007401002010B532211048FCF7BAFB1048E2
:1039E0000088C8B100200E4908800E48B0F90020B8
:1039F0000DA10A48FFF7DEF90120094908800748B0
:103A0000FCF7B2FB84B240F6FF73224603490A4832
:103A1000FEF77CFDFFF7D0FF10BD00007C0000200A
:103A2000480000204A00002074332E7478743D2230
:103A300025646D6D2200000074010020000000006C
:103A4000000000000102030406070809000000004E
:103A5000010203040040404040404040404041419A
:103A60004141414040404040404040404040404053
:103A700040404040400502020202020202020202ED
:103A800002020202022020202020202020202002EA
:103A9000020202020202909090909090101010107A
:103AA0001010101010101010101010101010101016
:103AB00002020202020288888888888808080808AA
:103AC0000808080808080808080808080808080876
:103AD0000202020240000000553A0008FC3A0008C9
:103AE000000000207C0000001C2E0008783B00082D
:103AF0007C0000204C0600002C2E0008CDCC4C3F52
:103B00000000000000004041000000000000000034
:103B100000000000000000000000000000000000A5
:103B20000000A041000000000000000000000000B4
:103B30000000000000C02844010000000000000058
:103B40000100000001000000010000000000000072
:103B50000000000000000000FFFFFF000000000068
:103B60000000000000000000100000000100000044
:083B70000024F4000000000035
:04000005080000ED02
:00000001FF
