:030000000204CE29
:0C04CE00787FE4F6D8FD75810702051563
:1005B600A907E9D3941F5040EB9400EA9400400346
:1005C600D38001C350329000097455F0900008F0B2
:1005D60090000A7408F0A37403F0A37401F0A3EB6F
:1005E600F0EAA3F0A3E9F0A3EDF0ECA3F07B017A27
:0905F6000079087D0A1205FF22BC
:0E013200900077EBF0A3EAF0A3E9F0A3EDF064
:1001400090007D7407F0E4A3F0EDC3940150030226
:10015000023890007AE0D394204003020238A3E0F2
:10016000FCA3E0FD9400EC94004003D38001C34065
:10017000030202389000097455F0900008F09000D6
:100180007AE0FF75F003A4240590000AF0A374033D
:10019000F0A3EFF0A3EDF0ECA3F0E490007EF0907C
:1001A000007AE0FF90007EE0C39F507C900077E0F3
:1001B000FBA3E0FAA3E0F990007EE0FF75F003A452
:1001C000F58285F083120341FE90007DE0FD04F08E
:1001D00074082DF582E43400F583EEF0EF75F0033A
:1001E000A4FFE92FF9EA35F0FA9000011203AFFFFE
:1001F00090007DE0FE04F074082EF582E43400F5F2
:1002000083EFF09000011203AFE5F0FF90007DE076
:10021000FE04F074082EF582E43400F583EFF090CC
:10022000007EE004F002019F7B017A0079089000D3
:080230000AE02402FD1205FFA3
:0102380022A3
:0D002600900078ECF0A3EDF0900077EFF083
:100033007C07E4F99000A2C9F0A3F0A3E9F09000D3
:10004300A27401F0A37400F0A3747AF0EFC39401D7
:100053005003020131900077E0D394204003020162
:1000630031A3E0FEA3E09400EE94004003D38001AB
:10007300C340030201319000A2E0FBA3E0FAA3E036
:100083004A4B70030201319000097455F090000847
:10009300F0900077E0FF75F003A4240590000AF0C8
:1000A300A37403F0A3EFF0900078E0FEA3E09000C8
:1000B3000DF0EEA3F0E4FD900077E0FFEDC39F5059
:1000C3005D9000A2E0FBA3E475F00112036EA9F0BA
:1000D300FA120328FFAE040C74082EF582E43400F0
:1000E300F583EFF09000A2E0FBA3E475F0021203A6
:1000F3006EA9F0FA120384FBAAF0FFAE040C740895
:100103002EF582E43400F583EFF0EAFFAE040C74BD
:10011300082EF582E43400F583EFF00D80997B011E
:0E0123007A00790890000AE02402FD1205FF20
:0101310022AB
:10065E009000097455F0900008F090000A7405F0AF
:10066E00A304F0A3EFF0A3EDF0ECA3F07B017A006E
:07067E0079087D070205FF6A
:100003009000087455F0A3F0A37402F0A37407F0F2
:0B0013007B017A0079087D040205FFE4
:100636009000097455F0900008F090000A7405F0D7
:10064600A3740BF0A3EFF0A3EDF0ECA3F07B017A1B
:080656000079087D070205FF91
:0906B500AD07AC067FFF0206361A
:08055A00900077EEF0A3EFF032
:10056200E4A3F0A3F09000087455F0A3F0A3740282
:10057200F0A3740FF07B017A0079087D041205FF65
:1005820090007774FFF5F012036E45F06022900040
:1005920001E060EC900007E0FE900006E0FDEDFF58
:1005A200900079EEF0A3EFF0E4900001F0D2AC22DB
:0305B200E4FEFF65
:0105B5002223
:03002300020413C1
:10041300C0E0C0F0C083C082C0D075D000C000C0AF
:0D04230001C002C003C004C005C006C00730
:10043000309876C298900000E0FF2402F582E43400
:1004400000F583E599F0EFC39402501074022FF584
:1004500082E43400F583E0B455028019900000E096
:10046000FFB4020404F08041EF14FF900004E0FEAA
:10047000EFC39E5008900000E004F0802CEFB5061A
:1004800016900000E4F0900005E0B40F1C9000010D
:100490007401F0C2AC8012900000E4F0FE7F06FD13
:1004A0007B017A0079021203E7309907C299900024
:0304B000AEE4F0C7
:1004B300D007D006D005D004D003D002D001D0009D
:0B04C300D0D0D082D083D0F0D0E03247
:0D06A700007F087E017DF3DDFEDEFCDFFA42
:0106B4002223
:100239001206851206A7E4FDFC7F6412065E7C05A2
:10024900AF041CEF60051206A780F5120003120621
:10025900A77DC87C007F64120636E4FDFC7F64122A
:10026900065E7C05AF041CEF60051206A780F51237
:1002790000031206A77BE87A037DDC7C05E4FF1204
:1002890005B61206A77BE87A037D207C037F02125C
:1002990005B61206A7E490007AF0A37405F0A374DA
:1002A90014F0A37402F0A3F0A374BCF0A37404F0D7
:1002B900A37402F0A37458F0A37406F0A37403F0B6
:1002C900A37484F0A37408F0A37403F0A37416F064
:1002D9007DE87C037F051200261206A790006F7443
:1002E90002F0A37405F0A37478F0A37404F0A37466
:1002F90002F0A374BCF07B017A00796F90007B74E3
:1003090003F0A374E8F07D021201321206A77F8878
:0F0319007E1312055A900075EEF0A3EFF080FEF0
:04001E004100AE00EF
:10068500759850758920758BFD758DFDD28ED2AC10
:03069500D2AF22BF
:0F0698009000AEE070FA9000AE7401F08F9922DE
:1005FF009000A5EBF0A3EAF0A3E9F0D2ACAF051D94
:10060F00EF60239000AEE070FA9000AE7401F090AE
:10061F0000A5E0FBA3E475F00112036EA9F0FA1236
:07062F000328F59980D72292
:1004DA00020239E493A3F8E493A34003F68001F2FD
:1004EA0008DFF48029E493A3F85407240CC8C33323
:1004FA00C4540F4420C8834004F456800146F6DFF2
:10050A00E4800B010204081020408090001EE47E63
:10051A00019360BCA3FF543F30E509541FFEE493E6
:10052A00A360010ECF54C025E060A840B8E493A3AD
:10053A00FAE493A3F8E493A3C8C582C8CAC583CAD8
:10054A00F0A3C8C582C8CAC583CADFE9DEE780BE90
:0100220000DD
:10032800BB010689828A83E0225002E722BBFE02D3
:09033800E32289828A83E4932206
:10034100BB010CE58229F582E5833AF583E0225071
:1003510006E92582F8E622BBFE06E92582F8E222BB
:0D036100E58229F582E5833AF583E49322D5
:10036E00A3F8E0C5F025F0F0E58215827002158342
:06037E00E0C838F0E8229F
:10038400BB010A89828A83E0F5F0A3E02250068744
:10039400F009E71922BBFE07E3F5F009E319228906
:0B03A400828A83E493F5F07401932239
:1003AF00BB0110E58229F582E5833AF583E0F5F08C
:1003BF00A3E0225009E92582F886F008E622BBFE69
:1003CF000AE92582F8E2F5F008E222E5832AF583AF
:0803DF00E993F5F0A3E9932274
:1003E700EF4E6012EF60010EEDBB010B89828A832D
:1003F700F0A3DFFCDEFA2289F05007F709DFFCA93A
:0C040700F022BBFEFCF309DFFCA9F02290
:00000001FF
