:0300000002026B8E
:0C026B00787FE4F6D8FD7581070202B22E
:0E05430000007F2B7E067DCBDDFEDEFCDFFAA6
:010551002287
:0F05520012052C7D017FFE12049312054380F4E5
:1000030041001C0041001D004100000041000100AF
:0800130041000202410003005C
:10052C0053877F759850438E04759CFD438E014311
:07053C008E10D2ACD2AF22F9
:0F05610090001CE070FA90001C7401F08F99223A
:1004280090003DEBF0A3EAF0A3E9F0D2ACAF051DD4
:10043800EF602390001CE070FA90001C7401F090AB
:10044800003DE0FBA3E475F001120162A9F0FA1285
:07045800011CF59980D72279
:030023000201785F
:10017800C0E0C0F0C083C082C0D075D000C000C04D
:0D01880001C002C003C004C005C006C007CE
:10019500209803020246C298AF99900000E07026AD
:1001A500EFB45515A3E004F0E0B4021AE4F09000B2
:1001B5000004F0900003F0800D900000E4F0900042
:1001C50003F0900001F0900000E06075900003E0FE
:1001D500FE2404F582E43400F583EFF0EEB4032445
:1001E5002404F582E43400F583E0900002F0C39422
:1001F500034006E0D39408400B9000027403F0908E
:100205000000E4F0900003E004F0900002E0240315
:10021500FFE433FEA3E0FDB50727E4B50623900010
:100225001DE0701804F0ED2402FFE433FE781E7C17
:10023500007D017B017A0079041200F6900000E44C
:0B024500F0309907C29990001CE4F013
:10025000D007D006D005D004D003D002D001D00002
:0B026000D0D0D082D083D0F0D0E032AC
:0E05700090001DE06005E4F07F01227F002274
:0B02F70090003DEBF0A3EAF0A3E9F05B
:10030200E4900041F0A3F09000407402F090003DB0
:10031200E0FBA3E0FAA3E0F9900003120135240206
:10032200FFE433FE900040E0C39FEE6480F87480E7
:1003320098501FE0F582758300120135FF9000424C
:10034200E02FF0900041E03400F0900040E004F033
:1003520080BB900041E0FEA3E0F4FFEEF490004188
:08036200F0A3EFF0900040F061
:01036A002270
:100493009000377455F0900036F0900038EFF0A3D9
:1004A3007404F0A3740DF0A3EDF07B017A007936A8
:1004B3001202F790003CEFF07B017A0079367D075A
:0304C30002042808
:0203CE00A9077D
:1003D000C3EC648094805003E4FCFDD3ED94E8EC1E
:1003E0006480948340047C037DE89000447455F05D
:1003F000900043F0900045E9F0A37407F0A3740166
:10040000F0A3EDF0ECFFA3EFF0A3EBF0EAA3F07B99
:10041000017A0079431202F790004CEFF07B017AE9
:080420000079437D0A02042863
:1004C60090004E7455F090004DF090004FEFF0A361
:1004D6007404F0A3741FF0E4A3F07B017A00794D55
:1004E6001202F7900053EFF07B017A00794D7D07F9
:0304F600020428D5
:1004F9009000557455F0900054F0900056EFF0A319
:100509007404F0A3741FF0A37401F0FB7A0079540A
:100519001202F790005AEFF07B017A0079547D07B7
:03052900020428A1
:10045F0090005C7455F090005BF090005DEFF0A39E
:10046F007403F0A3741CF07B017A00795B1202F71E
:10047F00900060EFF07B017A00795B7D0612042813
:03048F0012036BEA
:010492002247
:10036B009000617427F0A37410F0120570EF701BEE
:10037B00900062E024FFF0900061E034FFF0C3E0F6
:10038B006480948050E47EFF7FFF227B017A0079AA
:10039B001E1202F7900021E02420F582E43400F5D0
:1003AB0083E06F60057EFF7FFE22900022E024E455
:1003BB00700D900024E0FE900023E0FDEDFF22E4A1
:0203CB00FEFF33
:0103CD00220D
:10027700020552E493A3F8E493A34003F68001F246
:1002870008DFF48029E493A3F85407240CC8C33388
:10029700C4540F4420C8834004F456800146F6DF57
:1002A700E4800B0102040810204080900003E47EE4
:1002B700019360BCA3FF543F30E509541FFEE4934C
:1002C700A360010ECF54C025E060A840B8E493A313
:1002D700FAE493A3F8E493A3C8C582C8CAC583CA3E
:1002E700F0A3C8C582C8CAC583CADFE9DEE780BEF6
:01001B0000E4
:10002600E709F608DFFA8046E709F208DFFA803EBC
:1000360088828C83E709F0A3DFFA8032E309F608A9
:10004600DFFA8078E309F208DFFA807088828C8311
:10005600E309F0A3DFFA806489828A83E0A3F608C5
:10006600DFFA805889828A83E0A3F208DFFA804C9F
:1000760080D280FA80C680D4806980F28033801076
:1000860080A680EA809A80A880DA80E280CA8033DF
:1000960089828A83ECFAE493A3C8C582C8CCC58357
:1000A600CCF0A3C8C582C8CCC583CCDFE9DEE78027
:1000B6000D89828A83E493A3F608DFF9ECFAA9F0A6
:1000C600EDFB2289828A83ECFAE0A3C8C582C8CCFC
:1000D600C583CCF0A3C8C582C8CCC583CCDFEADE15
:1000E600E880DB89828A83E493A3F208DFF980CC77
:1000F60088F0EF60010E4E60C388F0ED2402B40470
:100106000050B9F582EB2402B4040050AF23234516
:06011600822390007673C5
:10011C00BB010689828A83E0225002E722BBFE02E1
:09012C00E32289828A83E4932214
:10013500BB010CE58229F582E5833AF583E022507F
:1001450006E92582F8E622BBFE06E92582F8E222C9
:0D015500E58229F582E5833AF583E49322E3
:10016200A3F8E0C5F025F0F0E58215827002158350
:06017200E0C838F0E822AD
:00000001FF
